{
  "_format": "hh-sol-artifact-1",
  "contractName": "Frame",
  "sourceName": "src/backend/contracts/Frame.sol",
  "abi": [
    {
      "inputs": [
        {
          "internalType": "string",
          "name": "_baseURI",
          "type": "string"
        },
        {
          "internalType": "uint8",
          "name": "_frameCount",
          "type": "uint8"
        }
      ],
      "stateMutability": "nonpayable",
      "type": "constructor"
    },
    {
      "anonymous": false,
      "inputs": [
        {
          "indexed": true,
          "internalType": "address",
          "name": "account",
          "type": "address"
        },
        {
          "indexed": true,
          "internalType": "address",
          "name": "operator",
          "type": "address"
        },
        {
          "indexed": false,
          "internalType": "bool",
          "name": "approved",
          "type": "bool"
        }
      ],
      "name": "ApprovalForAll",
      "type": "event"
    },
    {
      "anonymous": false,
      "inputs": [
        {
          "indexed": true,
          "internalType": "address",
          "name": "previousOwner",
          "type": "address"
        },
        {
          "indexed": true,
          "internalType": "address",
          "name": "newOwner",
          "type": "address"
        }
      ],
      "name": "OwnershipTransferred",
      "type": "event"
    },
    {
      "anonymous": false,
      "inputs": [
        {
          "indexed": true,
          "internalType": "address",
          "name": "operator",
          "type": "address"
        },
        {
          "indexed": true,
          "internalType": "address",
          "name": "from",
          "type": "address"
        },
        {
          "indexed": true,
          "internalType": "address",
          "name": "to",
          "type": "address"
        },
        {
          "indexed": false,
          "internalType": "uint256[]",
          "name": "ids",
          "type": "uint256[]"
        },
        {
          "indexed": false,
          "internalType": "uint256[]",
          "name": "values",
          "type": "uint256[]"
        }
      ],
      "name": "TransferBatch",
      "type": "event"
    },
    {
      "anonymous": false,
      "inputs": [
        {
          "indexed": true,
          "internalType": "address",
          "name": "operator",
          "type": "address"
        },
        {
          "indexed": true,
          "internalType": "address",
          "name": "from",
          "type": "address"
        },
        {
          "indexed": true,
          "internalType": "address",
          "name": "to",
          "type": "address"
        },
        {
          "indexed": false,
          "internalType": "uint256",
          "name": "id",
          "type": "uint256"
        },
        {
          "indexed": false,
          "internalType": "uint256",
          "name": "value",
          "type": "uint256"
        }
      ],
      "name": "TransferSingle",
      "type": "event"
    },
    {
      "anonymous": false,
      "inputs": [
        {
          "indexed": false,
          "internalType": "string",
          "name": "value",
          "type": "string"
        },
        {
          "indexed": true,
          "internalType": "uint256",
          "name": "id",
          "type": "uint256"
        }
      ],
      "name": "URI",
      "type": "event"
    },
    {
      "inputs": [
        {
          "internalType": "address",
          "name": "account",
          "type": "address"
        },
        {
          "internalType": "uint256",
          "name": "id",
          "type": "uint256"
        }
      ],
      "name": "balanceOf",
      "outputs": [
        {
          "internalType": "uint256",
          "name": "",
          "type": "uint256"
        }
      ],
      "stateMutability": "view",
      "type": "function"
    },
    {
      "inputs": [
        {
          "internalType": "address[]",
          "name": "accounts",
          "type": "address[]"
        },
        {
          "internalType": "uint256[]",
          "name": "ids",
          "type": "uint256[]"
        }
      ],
      "name": "balanceOfBatch",
      "outputs": [
        {
          "internalType": "uint256[]",
          "name": "",
          "type": "uint256[]"
        }
      ],
      "stateMutability": "view",
      "type": "function"
    },
    {
      "inputs": [
        {
          "internalType": "uint256",
          "name": "id",
          "type": "uint256"
        }
      ],
      "name": "exists",
      "outputs": [
        {
          "internalType": "bool",
          "name": "",
          "type": "bool"
        }
      ],
      "stateMutability": "view",
      "type": "function"
    },
    {
      "inputs": [
        {
          "internalType": "address",
          "name": "account",
          "type": "address"
        },
        {
          "internalType": "address",
          "name": "operator",
          "type": "address"
        }
      ],
      "name": "isApprovedForAll",
      "outputs": [
        {
          "internalType": "bool",
          "name": "",
          "type": "bool"
        }
      ],
      "stateMutability": "view",
      "type": "function"
    },
    {
      "inputs": [
        {
          "internalType": "uint256",
          "name": "id",
          "type": "uint256"
        }
      ],
      "name": "mint",
      "outputs": [],
      "stateMutability": "nonpayable",
      "type": "function"
    },
    {
      "inputs": [
        {
          "internalType": "address",
          "name": "to",
          "type": "address"
        },
        {
          "internalType": "uint256[]",
          "name": "ids",
          "type": "uint256[]"
        },
        {
          "internalType": "uint256[]",
          "name": "amounts",
          "type": "uint256[]"
        },
        {
          "internalType": "bytes",
          "name": "data",
          "type": "bytes"
        }
      ],
      "name": "mintBatch",
      "outputs": [],
      "stateMutability": "nonpayable",
      "type": "function"
    },
    {
      "inputs": [],
      "name": "owner",
      "outputs": [
        {
          "internalType": "address",
          "name": "",
          "type": "address"
        }
      ],
      "stateMutability": "view",
      "type": "function"
    },
    {
      "inputs": [],
      "name": "renounceOwnership",
      "outputs": [],
      "stateMutability": "nonpayable",
      "type": "function"
    },
    {
      "inputs": [
        {
          "internalType": "address",
          "name": "from",
          "type": "address"
        },
        {
          "internalType": "address",
          "name": "to",
          "type": "address"
        },
        {
          "internalType": "uint256[]",
          "name": "ids",
          "type": "uint256[]"
        },
        {
          "internalType": "uint256[]",
          "name": "amounts",
          "type": "uint256[]"
        },
        {
          "internalType": "bytes",
          "name": "data",
          "type": "bytes"
        }
      ],
      "name": "safeBatchTransferFrom",
      "outputs": [],
      "stateMutability": "nonpayable",
      "type": "function"
    },
    {
      "inputs": [
        {
          "internalType": "address",
          "name": "from",
          "type": "address"
        },
        {
          "internalType": "address",
          "name": "to",
          "type": "address"
        },
        {
          "internalType": "uint256",
          "name": "id",
          "type": "uint256"
        },
        {
          "internalType": "uint256",
          "name": "amount",
          "type": "uint256"
        },
        {
          "internalType": "bytes",
          "name": "data",
          "type": "bytes"
        }
      ],
      "name": "safeTransferFrom",
      "outputs": [],
      "stateMutability": "nonpayable",
      "type": "function"
    },
    {
      "inputs": [
        {
          "internalType": "address",
          "name": "operator",
          "type": "address"
        },
        {
          "internalType": "bool",
          "name": "approved",
          "type": "bool"
        }
      ],
      "name": "setApprovalForAll",
      "outputs": [],
      "stateMutability": "nonpayable",
      "type": "function"
    },
    {
      "inputs": [
        {
          "internalType": "string",
          "name": "newuri",
          "type": "string"
        }
      ],
      "name": "setURI",
      "outputs": [],
      "stateMutability": "nonpayable",
      "type": "function"
    },
    {
      "inputs": [
        {
          "internalType": "bytes4",
          "name": "interfaceId",
          "type": "bytes4"
        }
      ],
      "name": "supportsInterface",
      "outputs": [
        {
          "internalType": "bool",
          "name": "",
          "type": "bool"
        }
      ],
      "stateMutability": "view",
      "type": "function"
    },
    {
      "inputs": [
        {
          "internalType": "uint256",
          "name": "id",
          "type": "uint256"
        }
      ],
      "name": "totalSupply",
      "outputs": [
        {
          "internalType": "uint256",
          "name": "",
          "type": "uint256"
        }
      ],
      "stateMutability": "view",
      "type": "function"
    },
    {
      "inputs": [
        {
          "internalType": "address",
          "name": "newOwner",
          "type": "address"
        }
      ],
      "name": "transferOwnership",
      "outputs": [],
      "stateMutability": "nonpayable",
      "type": "function"
    },
    {
      "inputs": [
        {
          "internalType": "uint256",
          "name": "tokenId",
          "type": "uint256"
        }
      ],
      "name": "uri",
      "outputs": [
        {
          "internalType": "string",
          "name": "",
          "type": "string"
        }
      ],
      "stateMutability": "view",
      "type": "function"
    }
  ],
  "bytecode": "0x60a06040523480156200001157600080fd5b5060405162003d5538038062003d5583398181016040528101906200003791906200040e565b8162000049816200009960201b60201c565b506200006a6200005e620000b560201b60201c565b620000bd60201b60201c565b8060ff1660808160ff168152505081600590805190602001906200009092919062000183565b505050620004d9565b8060029080519060200190620000b192919062000183565b5050565b600033905090565b6000600360009054906101000a900473ffffffffffffffffffffffffffffffffffffffff16905081600360006101000a81548173ffffffffffffffffffffffffffffffffffffffff021916908373ffffffffffffffffffffffffffffffffffffffff1602179055508173ffffffffffffffffffffffffffffffffffffffff168173ffffffffffffffffffffffffffffffffffffffff167f8be0079c531659141344cd1fd0a4f28419497f9722a3daafe3b4186f6b6457e060405160405180910390a35050565b8280546200019190620004a3565b90600052602060002090601f016020900481019282620001b5576000855562000201565b82601f10620001d057805160ff191683800117855562000201565b8280016001018555821562000201579182015b8281111562000200578251825591602001919060010190620001e3565b5b50905062000210919062000214565b5090565b5b808211156200022f57600081600090555060010162000215565b5090565b6000604051905090565b600080fd5b600080fd5b600080fd5b600080fd5b6000601f19601f8301169050919050565b7f4e487b7100000000000000000000000000000000000000000000000000000000600052604160045260246000fd5b6200029c8262000251565b810181811067ffffffffffffffff82111715620002be57620002bd62000262565b5b80604052505050565b6000620002d362000233565b9050620002e1828262000291565b919050565b600067ffffffffffffffff82111562000304576200030362000262565b5b6200030f8262000251565b9050602081019050919050565b60005b838110156200033c5780820151818401526020810190506200031f565b838111156200034c576000848401525b50505050565b6000620003696200036384620002e6565b620002c7565b9050828152602081018484840111156200038857620003876200024c565b5b620003958482856200031c565b509392505050565b600082601f830112620003b557620003b462000247565b5b8151620003c784826020860162000352565b91505092915050565b600060ff82169050919050565b620003e881620003d0565b8114620003f457600080fd5b50565b6000815190506200040881620003dd565b92915050565b600080604083850312156200042857620004276200023d565b5b600083015167ffffffffffffffff81111562000449576200044862000242565b5b62000457858286016200039d565b92505060206200046a85828601620003f7565b9150509250929050565b7f4e487b7100000000000000000000000000000000000000000000000000000000600052602260045260246000fd5b60006002820490506001821680620004bc57607f821691505b60208210811415620004d357620004d262000474565b5b50919050565b608051613860620004f5600039600061050301526138606000f3fe608060405234801561001057600080fd5b50600436106100ff5760003560e01c8063715018a611610097578063bd85b03911610066578063bd85b039146102a8578063e985e9c5146102d8578063f242432a14610308578063f2fde38b14610324576100ff565b8063715018a6146102485780638da5cb5b14610252578063a0712d6814610270578063a22cb4651461028c576100ff565b80631f7fdffa116100d35780631f7fdffa146101b05780632eb2c2d6146101cc5780634e1273f4146101e85780634f558e7914610218576100ff565b8062fdd58e1461010457806301ffc9a71461013457806302fe5305146101645780630e89341c14610180575b600080fd5b61011e60048036038101906101199190612122565b610340565b60405161012b9190612171565b60405180910390f35b61014e600480360381019061014991906121e4565b610409565b60405161015b919061222c565b60405180910390f35b61017e6004803603810190610179919061238d565b6104eb565b005b61019a600480360381019061019591906123d6565b6104ff565b6040516101a7919061248b565b60405180910390f35b6101ca60048036038101906101c59190612616565b61063f565b005b6101e660048036038101906101e191906126d1565b610659565b005b61020260048036038101906101fd9190612863565b6106fa565b60405161020f9190612999565b60405180910390f35b610232600480360381019061022d91906123d6565b610813565b60405161023f919061222c565b60405180910390f35b610250610827565b005b61025a61083b565b60405161026791906129ca565b60405180910390f35b61028a600480360381019061028591906123d6565b610865565b005b6102a660048036038101906102a19190612a11565b610884565b005b6102c260048036038101906102bd91906123d6565b61089a565b6040516102cf9190612171565b60405180910390f35b6102f260048036038101906102ed9190612a51565b6108b7565b6040516102ff919061222c565b60405180910390f35b610322600480360381019061031d9190612a91565b61094b565b005b61033e60048036038101906103399190612b28565b6109ec565b005b60008073ffffffffffffffffffffffffffffffffffffffff168373ffffffffffffffffffffffffffffffffffffffff1614156103b1576040517f08c379a00000000000000000000000000000000000000000000000000000000081526004016103a890612bc7565b60405180910390fd5b60008083815260200190815260200160002060008473ffffffffffffffffffffffffffffffffffffffff1673ffffffffffffffffffffffffffffffffffffffff16815260200190815260200160002054905092915050565b60007fd9b67a26000000000000000000000000000000000000000000000000000000007bffffffffffffffffffffffffffffffffffffffffffffffffffffffff1916827bffffffffffffffffffffffffffffffffffffffffffffffffffffffff191614806104d457507f0e89341c000000000000000000000000000000000000000000000000000000007bffffffffffffffffffffffffffffffffffffffffffffffffffffffff1916827bffffffffffffffffffffffffffffffffffffffffffffffffffffffff1916145b806104e457506104e382610a70565b5b9050919050565b6104f3610ada565b6104fc81610b58565b50565b60607f000000000000000000000000000000000000000000000000000000000000000060ff168210610566576040517f08c379a000000000000000000000000000000000000000000000000000000000815260040161055d90612c59565b60405180910390fd5b60006005805461057590612ca8565b90501161060c576005805461058990612ca8565b80601f01602080910402602001604051908101604052809291908181526020018280546105b590612ca8565b80156106025780601f106105d757610100808354040283529160200191610602565b820191906000526020600020905b8154815290600101906020018083116105e557829003601f168201915b5050505050610638565b600561061783610b72565b604051602001610628929190612daa565b6040516020818303038152906040525b9050919050565b610647610ada565b61065384848484610c4a565b50505050565b610661610e77565b73ffffffffffffffffffffffffffffffffffffffff168573ffffffffffffffffffffffffffffffffffffffff1614806106a757506106a6856106a1610e77565b6108b7565b5b6106e6576040517f08c379a00000000000000000000000000000000000000000000000000000000081526004016106dd90612e40565b60405180910390fd5b6106f38585858585610e7f565b5050505050565b60608151835114610740576040517f08c379a000000000000000000000000000000000000000000000000000000000815260040161073790612ed2565b60405180910390fd5b6000835167ffffffffffffffff81111561075d5761075c612262565b5b60405190808252806020026020018201604052801561078b5781602001602082028036833780820191505090505b50905060005b8451811015610808576107d88582815181106107b0576107af612ef2565b5b60200260200101518583815181106107cb576107ca612ef2565b5b6020026020010151610340565b8282815181106107eb576107ea612ef2565b5b6020026020010181815250508061080190612f50565b9050610791565b508091505092915050565b60008061081f8361089a565b119050919050565b61082f610ada565b61083960006111a1565b565b6000600360009054906101000a900473ffffffffffffffffffffffffffffffffffffffff16905090565b6108813382600160405180602001604052806000815250611267565b50565b61089661088f610e77565b8383611418565b5050565b600060046000838152602001908152602001600020549050919050565b6000600160008473ffffffffffffffffffffffffffffffffffffffff1673ffffffffffffffffffffffffffffffffffffffff16815260200190815260200160002060008373ffffffffffffffffffffffffffffffffffffffff1673ffffffffffffffffffffffffffffffffffffffff16815260200190815260200160002060009054906101000a900460ff16905092915050565b610953610e77565b73ffffffffffffffffffffffffffffffffffffffff168573ffffffffffffffffffffffffffffffffffffffff161480610999575061099885610993610e77565b6108b7565b5b6109d8576040517f08c379a00000000000000000000000000000000000000000000000000000000081526004016109cf90612e40565b60405180910390fd5b6109e58585858585611585565b5050505050565b6109f4610ada565b600073ffffffffffffffffffffffffffffffffffffffff168173ffffffffffffffffffffffffffffffffffffffff161415610a64576040517f08c379a0000000000000000000000000000000000000000000000000000000008152600401610a5b9061300b565b60405180910390fd5b610a6d816111a1565b50565b60007f01ffc9a7000000000000000000000000000000000000000000000000000000007bffffffffffffffffffffffffffffffffffffffffffffffffffffffff1916827bffffffffffffffffffffffffffffffffffffffffffffffffffffffff1916149050919050565b610ae2610e77565b73ffffffffffffffffffffffffffffffffffffffff16610b0061083b565b73ffffffffffffffffffffffffffffffffffffffff1614610b56576040517f08c379a0000000000000000000000000000000000000000000000000000000008152600401610b4d90613077565b60405180910390fd5b565b8060029080519060200190610b6e929190611fd7565b5050565b606060006001610b8184611821565b01905060008167ffffffffffffffff811115610ba057610b9f612262565b5b6040519080825280601f01601f191660200182016040528015610bd25781602001600182028036833780820191505090505b509050600082602001820190505b600115610c3f578080600190039150507f3031323334353637383961626364656600000000000000000000000000000000600a86061a8153600a8581610c2957610c28613097565b5b0494506000851415610c3a57610c3f565b610be0565b819350505050919050565b600073ffffffffffffffffffffffffffffffffffffffff168473ffffffffffffffffffffffffffffffffffffffff161415610cba576040517f08c379a0000000000000000000000000000000000000000000000000000000008152600401610cb190613138565b60405180910390fd5b8151835114610cfe576040517f08c379a0000000000000000000000000000000000000000000000000000000008152600401610cf5906131ca565b60405180910390fd5b6000610d08610e77565b9050610d1981600087878787611974565b60005b8451811015610dd257838181518110610d3857610d37612ef2565b5b6020026020010151600080878481518110610d5657610d55612ef2565b5b6020026020010151815260200190815260200160002060008873ffffffffffffffffffffffffffffffffffffffff1673ffffffffffffffffffffffffffffffffffffffff1681526020019081526020016000206000828254610db891906131ea565b925050819055508080610dca90612f50565b915050610d1c565b508473ffffffffffffffffffffffffffffffffffffffff16600073ffffffffffffffffffffffffffffffffffffffff168273ffffffffffffffffffffffffffffffffffffffff167f4a39dc06d4c0dbc64b70af90fd698a233a518aa5d07e595d983b8c0526c8f7fb8787604051610e4a929190613240565b60405180910390a4610e618160008787878761198a565b610e7081600087878787611992565b5050505050565b600033905090565b8151835114610ec3576040517f08c379a0000000000000000000000000000000000000000000000000000000008152600401610eba906131ca565b60405180910390fd5b600073ffffffffffffffffffffffffffffffffffffffff168473ffffffffffffffffffffffffffffffffffffffff161415610f33576040517f08c379a0000000000000000000000000000000000000000000000000000000008152600401610f2a906132e9565b60405180910390fd5b6000610f3d610e77565b9050610f4d818787878787611974565b60005b84518110156110fe576000858281518110610f6e57610f6d612ef2565b5b602002602001015190506000858381518110610f8d57610f8c612ef2565b5b60200260200101519050600080600084815260200190815260200160002060008b73ffffffffffffffffffffffffffffffffffffffff1673ffffffffffffffffffffffffffffffffffffffff1681526020019081526020016000205490508181101561102e576040517f08c379a00000000000000000000000000000000000000000000000000000000081526004016110259061337b565b60405180910390fd5b81810360008085815260200190815260200160002060008c73ffffffffffffffffffffffffffffffffffffffff1673ffffffffffffffffffffffffffffffffffffffff168152602001908152602001600020819055508160008085815260200190815260200160002060008b73ffffffffffffffffffffffffffffffffffffffff1673ffffffffffffffffffffffffffffffffffffffff16815260200190815260200160002060008282546110e391906131ea565b92505081905550505050806110f790612f50565b9050610f50565b508473ffffffffffffffffffffffffffffffffffffffff168673ffffffffffffffffffffffffffffffffffffffff168273ffffffffffffffffffffffffffffffffffffffff167f4a39dc06d4c0dbc64b70af90fd698a233a518aa5d07e595d983b8c0526c8f7fb8787604051611175929190613240565b60405180910390a461118b81878787878761198a565b611199818787878787611992565b505050505050565b6000600360009054906101000a900473ffffffffffffffffffffffffffffffffffffffff16905081600360006101000a81548173ffffffffffffffffffffffffffffffffffffffff021916908373ffffffffffffffffffffffffffffffffffffffff1602179055508173ffffffffffffffffffffffffffffffffffffffff168173ffffffffffffffffffffffffffffffffffffffff167f8be0079c531659141344cd1fd0a4f28419497f9722a3daafe3b4186f6b6457e060405160405180910390a35050565b600073ffffffffffffffffffffffffffffffffffffffff168473ffffffffffffffffffffffffffffffffffffffff1614156112d7576040517f08c379a00000000000000000000000000000000000000000000000000000000081526004016112ce90613138565b60405180910390fd5b60006112e1610e77565b905060006112ee85611b79565b905060006112fb85611b79565b905061130c83600089858589611974565b8460008088815260200190815260200160002060008973ffffffffffffffffffffffffffffffffffffffff1673ffffffffffffffffffffffffffffffffffffffff168152602001908152602001600020600082825461136b91906131ea565b925050819055508673ffffffffffffffffffffffffffffffffffffffff16600073ffffffffffffffffffffffffffffffffffffffff168473ffffffffffffffffffffffffffffffffffffffff167fc3d58168c5ae7397731d063d5bbf3d657854427343f4c083240f7aacaa2d0f6289896040516113e992919061339b565b60405180910390a46114008360008985858961198a565b61140f83600089898989611bf3565b50505050505050565b8173ffffffffffffffffffffffffffffffffffffffff168373ffffffffffffffffffffffffffffffffffffffff161415611487576040517f08c379a000000000000000000000000000000000000000000000000000000000815260040161147e90613436565b60405180910390fd5b80600160008573ffffffffffffffffffffffffffffffffffffffff1673ffffffffffffffffffffffffffffffffffffffff16815260200190815260200160002060008473ffffffffffffffffffffffffffffffffffffffff1673ffffffffffffffffffffffffffffffffffffffff16815260200190815260200160002060006101000a81548160ff0219169083151502179055508173ffffffffffffffffffffffffffffffffffffffff168373ffffffffffffffffffffffffffffffffffffffff167f17307eab39ab6107e8899845ad3d59bd9653f200f220920489ca2b5937696c3183604051611578919061222c565b60405180910390a3505050565b600073ffffffffffffffffffffffffffffffffffffffff168473ffffffffffffffffffffffffffffffffffffffff1614156115f5576040517f08c379a00000000000000000000000000000000000000000000000000000000081526004016115ec906132e9565b60405180910390fd5b60006115ff610e77565b9050600061160c85611b79565b9050600061161985611b79565b9050611629838989858589611974565b600080600088815260200190815260200160002060008a73ffffffffffffffffffffffffffffffffffffffff1673ffffffffffffffffffffffffffffffffffffffff168152602001908152602001600020549050858110156116c0576040517f08c379a00000000000000000000000000000000000000000000000000000000081526004016116b79061337b565b60405180910390fd5b85810360008089815260200190815260200160002060008b73ffffffffffffffffffffffffffffffffffffffff1673ffffffffffffffffffffffffffffffffffffffff168152602001908152602001600020819055508560008089815260200190815260200160002060008a73ffffffffffffffffffffffffffffffffffffffff1673ffffffffffffffffffffffffffffffffffffffff168152602001908152602001600020600082825461177591906131ea565b925050819055508773ffffffffffffffffffffffffffffffffffffffff168973ffffffffffffffffffffffffffffffffffffffff168573ffffffffffffffffffffffffffffffffffffffff167fc3d58168c5ae7397731d063d5bbf3d657854427343f4c083240f7aacaa2d0f628a8a6040516117f292919061339b565b60405180910390a4611808848a8a86868a61198a565b611816848a8a8a8a8a611bf3565b505050505050505050565b600080600090507a184f03e93ff9f4daa797ed6e38ed64bf6a1f010000000000000000831061187f577a184f03e93ff9f4daa797ed6e38ed64bf6a1f010000000000000000838161187557611874613097565b5b0492506040810190505b6d04ee2d6d415b85acef810000000083106118bc576d04ee2d6d415b85acef810000000083816118b2576118b1613097565b5b0492506020810190505b662386f26fc1000083106118eb57662386f26fc1000083816118e1576118e0613097565b5b0492506010810190505b6305f5e1008310611914576305f5e100838161190a57611909613097565b5b0492506008810190505b612710831061193957612710838161192f5761192e613097565b5b0492506004810190505b6064831061195c576064838161195257611951613097565b5b0492506002810190505b600a831061196b576001810190505b80915050919050565b611982868686868686611dda565b505050505050565b505050505050565b6119b18473ffffffffffffffffffffffffffffffffffffffff16611fac565b15611b71578373ffffffffffffffffffffffffffffffffffffffff1663bc197c8187878686866040518663ffffffff1660e01b81526004016119f79594939291906134ab565b602060405180830381600087803b158015611a1157600080fd5b505af1925050508015611a4257506040513d601f19601f82011682018060405250810190611a3f9190613528565b60015b611ae857611a4e613562565b806308c379a01415611aab5750611a63613584565b80611a6e5750611aad565b806040517f08c379a0000000000000000000000000000000000000000000000000000000008152600401611aa2919061248b565b60405180910390fd5b505b6040517f08c379a0000000000000000000000000000000000000000000000000000000008152600401611adf9061368c565b60405180910390fd5b63bc197c8160e01b7bffffffffffffffffffffffffffffffffffffffffffffffffffffffff1916817bffffffffffffffffffffffffffffffffffffffffffffffffffffffff191614611b6f576040517f08c379a0000000000000000000000000000000000000000000000000000000008152600401611b669061371e565b60405180910390fd5b505b505050505050565b60606000600167ffffffffffffffff811115611b9857611b97612262565b5b604051908082528060200260200182016040528015611bc65781602001602082028036833780820191505090505b5090508281600081518110611bde57611bdd612ef2565b5b60200260200101818152505080915050919050565b611c128473ffffffffffffffffffffffffffffffffffffffff16611fac565b15611dd2578373ffffffffffffffffffffffffffffffffffffffff1663f23a6e6187878686866040518663ffffffff1660e01b8152600401611c5895949392919061373e565b602060405180830381600087803b158015611c7257600080fd5b505af1925050508015611ca357506040513d601f19601f82011682018060405250810190611ca09190613528565b60015b611d4957611caf613562565b806308c379a01415611d0c5750611cc4613584565b80611ccf5750611d0e565b806040517f08c379a0000000000000000000000000000000000000000000000000000000008152600401611d03919061248b565b60405180910390fd5b505b6040517f08c379a0000000000000000000000000000000000000000000000000000000008152600401611d409061368c565b60405180910390fd5b63f23a6e6160e01b7bffffffffffffffffffffffffffffffffffffffffffffffffffffffff1916817bffffffffffffffffffffffffffffffffffffffffffffffffffffffff191614611dd0576040517f08c379a0000000000000000000000000000000000000000000000000000000008152600401611dc79061371e565b60405180910390fd5b505b505050505050565b611de8868686868686611fcf565b600073ffffffffffffffffffffffffffffffffffffffff168573ffffffffffffffffffffffffffffffffffffffff161415611e9a5760005b8351811015611e9857828181518110611e3c57611e3b612ef2565b5b602002602001015160046000868481518110611e5b57611e5a612ef2565b5b602002602001015181526020019081526020016000206000828254611e8091906131ea565b9250508190555080611e9190612f50565b9050611e20565b505b600073ffffffffffffffffffffffffffffffffffffffff168473ffffffffffffffffffffffffffffffffffffffff161415611fa45760005b8351811015611fa2576000848281518110611ef057611eef612ef2565b5b602002602001015190506000848381518110611f0f57611f0e612ef2565b5b6020026020010151905060006004600084815260200190815260200160002054905081811015611f74576040517f08c379a0000000000000000000000000000000000000000000000000000000008152600401611f6b9061380a565b60405180910390fd5b818103600460008581526020019081526020016000208190555050505080611f9b90612f50565b9050611ed2565b505b505050505050565b6000808273ffffffffffffffffffffffffffffffffffffffff163b119050919050565b505050505050565b828054611fe390612ca8565b90600052602060002090601f016020900481019282612005576000855561204c565b82601f1061201e57805160ff191683800117855561204c565b8280016001018555821561204c579182015b8281111561204b578251825591602001919060010190612030565b5b509050612059919061205d565b5090565b5b8082111561207657600081600090555060010161205e565b5090565b6000604051905090565b600080fd5b600080fd5b600073ffffffffffffffffffffffffffffffffffffffff82169050919050565b60006120b98261208e565b9050919050565b6120c9816120ae565b81146120d457600080fd5b50565b6000813590506120e6816120c0565b92915050565b6000819050919050565b6120ff816120ec565b811461210a57600080fd5b50565b60008135905061211c816120f6565b92915050565b6000806040838503121561213957612138612084565b5b6000612147858286016120d7565b92505060206121588582860161210d565b9150509250929050565b61216b816120ec565b82525050565b60006020820190506121866000830184612162565b92915050565b60007fffffffff0000000000000000000000000000000000000000000000000000000082169050919050565b6121c18161218c565b81146121cc57600080fd5b50565b6000813590506121de816121b8565b92915050565b6000602082840312156121fa576121f9612084565b5b6000612208848285016121cf565b91505092915050565b60008115159050919050565b61222681612211565b82525050565b6000602082019050612241600083018461221d565b92915050565b600080fd5b600080fd5b6000601f19601f8301169050919050565b7f4e487b7100000000000000000000000000000000000000000000000000000000600052604160045260246000fd5b61229a82612251565b810181811067ffffffffffffffff821117156122b9576122b8612262565b5b80604052505050565b60006122cc61207a565b90506122d88282612291565b919050565b600067ffffffffffffffff8211156122f8576122f7612262565b5b61230182612251565b9050602081019050919050565b82818337600083830152505050565b600061233061232b846122dd565b6122c2565b90508281526020810184848401111561234c5761234b61224c565b5b61235784828561230e565b509392505050565b600082601f83011261237457612373612247565b5b813561238484826020860161231d565b91505092915050565b6000602082840312156123a3576123a2612084565b5b600082013567ffffffffffffffff8111156123c1576123c0612089565b5b6123cd8482850161235f565b91505092915050565b6000602082840312156123ec576123eb612084565b5b60006123fa8482850161210d565b91505092915050565b600081519050919050565b600082825260208201905092915050565b60005b8381101561243d578082015181840152602081019050612422565b8381111561244c576000848401525b50505050565b600061245d82612403565b612467818561240e565b935061247781856020860161241f565b61248081612251565b840191505092915050565b600060208201905081810360008301526124a58184612452565b905092915050565b600067ffffffffffffffff8211156124c8576124c7612262565b5b602082029050602081019050919050565b600080fd5b60006124f16124ec846124ad565b6122c2565b90508083825260208201905060208402830185811115612514576125136124d9565b5b835b8181101561253d5780612529888261210d565b845260208401935050602081019050612516565b5050509392505050565b600082601f83011261255c5761255b612247565b5b813561256c8482602086016124de565b91505092915050565b600067ffffffffffffffff8211156125905761258f612262565b5b61259982612251565b9050602081019050919050565b60006125b96125b484612575565b6122c2565b9050828152602081018484840111156125d5576125d461224c565b5b6125e084828561230e565b509392505050565b600082601f8301126125fd576125fc612247565b5b813561260d8482602086016125a6565b91505092915050565b600080600080608085870312156126305761262f612084565b5b600061263e878288016120d7565b945050602085013567ffffffffffffffff81111561265f5761265e612089565b5b61266b87828801612547565b935050604085013567ffffffffffffffff81111561268c5761268b612089565b5b61269887828801612547565b925050606085013567ffffffffffffffff8111156126b9576126b8612089565b5b6126c5878288016125e8565b91505092959194509250565b600080600080600060a086880312156126ed576126ec612084565b5b60006126fb888289016120d7565b955050602061270c888289016120d7565b945050604086013567ffffffffffffffff81111561272d5761272c612089565b5b61273988828901612547565b935050606086013567ffffffffffffffff81111561275a57612759612089565b5b61276688828901612547565b925050608086013567ffffffffffffffff81111561278757612786612089565b5b612793888289016125e8565b9150509295509295909350565b600067ffffffffffffffff8211156127bb576127ba612262565b5b602082029050602081019050919050565b60006127df6127da846127a0565b6122c2565b90508083825260208201905060208402830185811115612802576128016124d9565b5b835b8181101561282b578061281788826120d7565b845260208401935050602081019050612804565b5050509392505050565b600082601f83011261284a57612849612247565b5b813561285a8482602086016127cc565b91505092915050565b6000806040838503121561287a57612879612084565b5b600083013567ffffffffffffffff81111561289857612897612089565b5b6128a485828601612835565b925050602083013567ffffffffffffffff8111156128c5576128c4612089565b5b6128d185828601612547565b9150509250929050565b600081519050919050565b600082825260208201905092915050565b6000819050602082019050919050565b612910816120ec565b82525050565b60006129228383612907565b60208301905092915050565b6000602082019050919050565b6000612946826128db565b61295081856128e6565b935061295b836128f7565b8060005b8381101561298c5781516129738882612916565b975061297e8361292e565b92505060018101905061295f565b5085935050505092915050565b600060208201905081810360008301526129b3818461293b565b905092915050565b6129c4816120ae565b82525050565b60006020820190506129df60008301846129bb565b92915050565b6129ee81612211565b81146129f957600080fd5b50565b600081359050612a0b816129e5565b92915050565b60008060408385031215612a2857612a27612084565b5b6000612a36858286016120d7565b9250506020612a47858286016129fc565b9150509250929050565b60008060408385031215612a6857612a67612084565b5b6000612a76858286016120d7565b9250506020612a87858286016120d7565b9150509250929050565b600080600080600060a08688031215612aad57612aac612084565b5b6000612abb888289016120d7565b9550506020612acc888289016120d7565b9450506040612add8882890161210d565b9350506060612aee8882890161210d565b925050608086013567ffffffffffffffff811115612b0f57612b0e612089565b5b612b1b888289016125e8565b9150509295509295909350565b600060208284031215612b3e57612b3d612084565b5b6000612b4c848285016120d7565b91505092915050565b7f455243313135353a2061646472657373207a65726f206973206e6f742061207660008201527f616c6964206f776e657200000000000000000000000000000000000000000000602082015250565b6000612bb1602a8361240e565b9150612bbc82612b55565b604082019050919050565b60006020820190508181036000830152612be081612ba4565b9050919050565b7f5552492072657175657374656420666f7220696e76616c696420746f6b656e4960008201527f6400000000000000000000000000000000000000000000000000000000000000602082015250565b6000612c4360218361240e565b9150612c4e82612be7565b604082019050919050565b60006020820190508181036000830152612c7281612c36565b9050919050565b7f4e487b7100000000000000000000000000000000000000000000000000000000600052602260045260246000fd5b60006002820490506001821680612cc057607f821691505b60208210811415612cd457612cd3612c79565b5b50919050565b600081905092915050565b60008190508160005260206000209050919050565b60008154612d0781612ca8565b612d118186612cda565b94506001821660008114612d2c5760018114612d3d57612d70565b60ff19831686528186019350612d70565b612d4685612ce5565b60005b83811015612d6857815481890152600182019150602081019050612d49565b838801955050505b50505092915050565b6000612d8482612403565b612d8e8185612cda565b9350612d9e81856020860161241f565b80840191505092915050565b6000612db68285612cfa565b9150612dc28284612d79565b91508190509392505050565b7f455243313135353a2063616c6c6572206973206e6f7420746f6b656e206f776e60008201527f6572206f7220617070726f766564000000000000000000000000000000000000602082015250565b6000612e2a602e8361240e565b9150612e3582612dce565b604082019050919050565b60006020820190508181036000830152612e5981612e1d565b9050919050565b7f455243313135353a206163636f756e747320616e6420696473206c656e67746860008201527f206d69736d617463680000000000000000000000000000000000000000000000602082015250565b6000612ebc60298361240e565b9150612ec782612e60565b604082019050919050565b60006020820190508181036000830152612eeb81612eaf565b9050919050565b7f4e487b7100000000000000000000000000000000000000000000000000000000600052603260045260246000fd5b7f4e487b7100000000000000000000000000000000000000000000000000000000600052601160045260246000fd5b6000612f5b826120ec565b91507fffffffffffffffffffffffffffffffffffffffffffffffffffffffffffffffff821415612f8e57612f8d612f21565b5b600182019050919050565b7f4f776e61626c653a206e6577206f776e657220697320746865207a65726f206160008201527f6464726573730000000000000000000000000000000000000000000000000000602082015250565b6000612ff560268361240e565b915061300082612f99565b604082019050919050565b6000602082019050818103600083015261302481612fe8565b9050919050565b7f4f776e61626c653a2063616c6c6572206973206e6f7420746865206f776e6572600082015250565b600061306160208361240e565b915061306c8261302b565b602082019050919050565b6000602082019050818103600083015261309081613054565b9050919050565b7f4e487b7100000000000000000000000000000000000000000000000000000000600052601260045260246000fd5b7f455243313135353a206d696e7420746f20746865207a65726f2061646472657360008201527f7300000000000000000000000000000000000000000000000000000000000000602082015250565b600061312260218361240e565b915061312d826130c6565b604082019050919050565b6000602082019050818103600083015261315181613115565b9050919050565b7f455243313135353a2069647320616e6420616d6f756e7473206c656e6774682060008201527f6d69736d61746368000000000000000000000000000000000000000000000000602082015250565b60006131b460288361240e565b91506131bf82613158565b604082019050919050565b600060208201905081810360008301526131e3816131a7565b9050919050565b60006131f5826120ec565b9150613200836120ec565b9250827fffffffffffffffffffffffffffffffffffffffffffffffffffffffffffffffff0382111561323557613234612f21565b5b828201905092915050565b6000604082019050818103600083015261325a818561293b565b9050818103602083015261326e818461293b565b90509392505050565b7f455243313135353a207472616e7366657220746f20746865207a65726f20616460008201527f6472657373000000000000000000000000000000000000000000000000000000602082015250565b60006132d360258361240e565b91506132de82613277565b604082019050919050565b60006020820190508181036000830152613302816132c6565b9050919050565b7f455243313135353a20696e73756666696369656e742062616c616e636520666f60008201527f72207472616e7366657200000000000000000000000000000000000000000000602082015250565b6000613365602a8361240e565b915061337082613309565b604082019050919050565b6000602082019050818103600083015261339481613358565b9050919050565b60006040820190506133b06000830185612162565b6133bd6020830184612162565b9392505050565b7f455243313135353a2073657474696e6720617070726f76616c2073746174757360008201527f20666f722073656c660000000000000000000000000000000000000000000000602082015250565b600061342060298361240e565b915061342b826133c4565b604082019050919050565b6000602082019050818103600083015261344f81613413565b9050919050565b600081519050919050565b600082825260208201905092915050565b600061347d82613456565b6134878185613461565b935061349781856020860161241f565b6134a081612251565b840191505092915050565b600060a0820190506134c060008301886129bb565b6134cd60208301876129bb565b81810360408301526134df818661293b565b905081810360608301526134f3818561293b565b905081810360808301526135078184613472565b90509695505050505050565b600081519050613522816121b8565b92915050565b60006020828403121561353e5761353d612084565b5b600061354c84828501613513565b91505092915050565b60008160e01c9050919050565b600060033d11156135815760046000803e61357e600051613555565b90505b90565b600060443d101561359457613617565b61359c61207a565b60043d036004823e80513d602482011167ffffffffffffffff821117156135c4575050613617565b808201805167ffffffffffffffff8111156135e25750505050613617565b80602083010160043d0385018111156135ff575050505050613617565b61360e82602001850186612291565b82955050505050505b90565b7f455243313135353a207472616e7366657220746f206e6f6e2d4552433131353560008201527f526563656976657220696d706c656d656e746572000000000000000000000000602082015250565b600061367660348361240e565b91506136818261361a565b604082019050919050565b600060208201905081810360008301526136a581613669565b9050919050565b7f455243313135353a204552433131353552656365697665722072656a6563746560008201527f6420746f6b656e73000000000000000000000000000000000000000000000000602082015250565b600061370860288361240e565b9150613713826136ac565b604082019050919050565b60006020820190508181036000830152613737816136fb565b9050919050565b600060a08201905061375360008301886129bb565b61376060208301876129bb565b61376d6040830186612162565b61377a6060830185612162565b818103608083015261378c8184613472565b90509695505050505050565b7f455243313135353a206275726e20616d6f756e74206578636565647320746f7460008201527f616c537570706c79000000000000000000000000000000000000000000000000602082015250565b60006137f460288361240e565b91506137ff82613798565b604082019050919050565b60006020820190508181036000830152613823816137e7565b905091905056fea26469706673582212200b52a3a215d5b9888cd3dc3a23b5fead76845ceea761c21908c6461aa367877e64736f6c63430008090033",
  "linkReferences": {},
  "deployedLinkReferences": {}
}