{
  "_format": "hh-sol-artifact-1",
  "contractName": "Framable",
  "sourceName": "src/backend/contracts/Framable.sol",
  "abi": [
    {
      "inputs": [],
      "stateMutability": "nonpayable",
      "type": "constructor"
    },
    {
      "anonymous": false,
      "inputs": [
        {
          "indexed": true,
          "internalType": "address",
          "name": "owner",
          "type": "address"
        },
        {
          "indexed": true,
          "internalType": "address",
          "name": "approved",
          "type": "address"
        },
        {
          "indexed": true,
          "internalType": "uint256",
          "name": "tokenId",
          "type": "uint256"
        }
      ],
      "name": "Approval",
      "type": "event"
    },
    {
      "anonymous": false,
      "inputs": [
        {
          "indexed": true,
          "internalType": "address",
          "name": "owner",
          "type": "address"
        },
        {
          "indexed": true,
          "internalType": "address",
          "name": "operator",
          "type": "address"
        },
        {
          "indexed": false,
          "internalType": "bool",
          "name": "approved",
          "type": "bool"
        }
      ],
      "name": "ApprovalForAll",
      "type": "event"
    },
    {
      "anonymous": false,
      "inputs": [
        {
          "indexed": true,
          "internalType": "address",
          "name": "from",
          "type": "address"
        },
        {
          "indexed": true,
          "internalType": "address",
          "name": "to",
          "type": "address"
        },
        {
          "indexed": true,
          "internalType": "uint256",
          "name": "tokenId",
          "type": "uint256"
        }
      ],
      "name": "Transfer",
      "type": "event"
    },
    {
      "inputs": [
        {
          "internalType": "address",
          "name": "to",
          "type": "address"
        },
        {
          "internalType": "uint256",
          "name": "tokenId",
          "type": "uint256"
        }
      ],
      "name": "approve",
      "outputs": [],
      "stateMutability": "nonpayable",
      "type": "function"
    },
    {
      "inputs": [
        {
          "internalType": "address",
          "name": "owner",
          "type": "address"
        }
      ],
      "name": "balanceOf",
      "outputs": [
        {
          "internalType": "uint256",
          "name": "",
          "type": "uint256"
        }
      ],
      "stateMutability": "view",
      "type": "function"
    },
    {
      "inputs": [
        {
          "internalType": "uint256",
          "name": "tokenId",
          "type": "uint256"
        }
      ],
      "name": "getApproved",
      "outputs": [
        {
          "internalType": "address",
          "name": "",
          "type": "address"
        }
      ],
      "stateMutability": "view",
      "type": "function"
    },
    {
      "inputs": [
        {
          "internalType": "address",
          "name": "owner",
          "type": "address"
        },
        {
          "internalType": "address",
          "name": "operator",
          "type": "address"
        }
      ],
      "name": "isApprovedForAll",
      "outputs": [
        {
          "internalType": "bool",
          "name": "",
          "type": "bool"
        }
      ],
      "stateMutability": "view",
      "type": "function"
    },
    {
      "inputs": [
        {
          "internalType": "string",
          "name": "uri",
          "type": "string"
        },
        {
          "internalType": "address",
          "name": "_contractAddress",
          "type": "address"
        },
        {
          "internalType": "uint256",
          "name": "_originalTokenId",
          "type": "uint256"
        }
      ],
      "name": "merge",
      "outputs": [],
      "stateMutability": "nonpayable",
      "type": "function"
    },
    {
      "inputs": [
        {
          "internalType": "uint256",
          "name": "",
          "type": "uint256"
        }
      ],
      "name": "myNft",
      "outputs": [
        {
          "internalType": "address",
          "name": "contractAddress",
          "type": "address"
        },
        {
          "internalType": "uint256",
          "name": "tokenId",
          "type": "uint256"
        },
        {
          "internalType": "address",
          "name": "owner",
          "type": "address"
        }
      ],
      "stateMutability": "view",
      "type": "function"
    },
    {
      "inputs": [],
      "name": "name",
      "outputs": [
        {
          "internalType": "string",
          "name": "",
          "type": "string"
        }
      ],
      "stateMutability": "view",
      "type": "function"
    },
    {
      "inputs": [
        {
          "internalType": "uint256",
          "name": "tokenId",
          "type": "uint256"
        }
      ],
      "name": "ownerOf",
      "outputs": [
        {
          "internalType": "address",
          "name": "",
          "type": "address"
        }
      ],
      "stateMutability": "view",
      "type": "function"
    },
    {
      "inputs": [
        {
          "internalType": "address",
          "name": "from",
          "type": "address"
        },
        {
          "internalType": "address",
          "name": "to",
          "type": "address"
        },
        {
          "internalType": "uint256",
          "name": "tokenId",
          "type": "uint256"
        }
      ],
      "name": "safeTransferFrom",
      "outputs": [],
      "stateMutability": "nonpayable",
      "type": "function"
    },
    {
      "inputs": [
        {
          "internalType": "address",
          "name": "from",
          "type": "address"
        },
        {
          "internalType": "address",
          "name": "to",
          "type": "address"
        },
        {
          "internalType": "uint256",
          "name": "tokenId",
          "type": "uint256"
        },
        {
          "internalType": "bytes",
          "name": "data",
          "type": "bytes"
        }
      ],
      "name": "safeTransferFrom",
      "outputs": [],
      "stateMutability": "nonpayable",
      "type": "function"
    },
    {
      "inputs": [
        {
          "internalType": "address",
          "name": "operator",
          "type": "address"
        },
        {
          "internalType": "bool",
          "name": "approved",
          "type": "bool"
        }
      ],
      "name": "setApprovalForAll",
      "outputs": [],
      "stateMutability": "nonpayable",
      "type": "function"
    },
    {
      "inputs": [
        {
          "internalType": "bytes4",
          "name": "interfaceId",
          "type": "bytes4"
        }
      ],
      "name": "supportsInterface",
      "outputs": [
        {
          "internalType": "bool",
          "name": "",
          "type": "bool"
        }
      ],
      "stateMutability": "view",
      "type": "function"
    },
    {
      "inputs": [],
      "name": "symbol",
      "outputs": [
        {
          "internalType": "string",
          "name": "",
          "type": "string"
        }
      ],
      "stateMutability": "view",
      "type": "function"
    },
    {
      "inputs": [
        {
          "internalType": "uint256",
          "name": "tokenId",
          "type": "uint256"
        }
      ],
      "name": "tokenURI",
      "outputs": [
        {
          "internalType": "string",
          "name": "",
          "type": "string"
        }
      ],
      "stateMutability": "view",
      "type": "function"
    },
    {
      "inputs": [
        {
          "internalType": "address",
          "name": "from",
          "type": "address"
        },
        {
          "internalType": "address",
          "name": "to",
          "type": "address"
        },
        {
          "internalType": "uint256",
          "name": "tokenId",
          "type": "uint256"
        }
      ],
      "name": "transferFrom",
      "outputs": [],
      "stateMutability": "nonpayable",
      "type": "function"
    },
    {
      "inputs": [
        {
          "internalType": "uint256",
          "name": "_tokenId",
          "type": "uint256"
        }
      ],
      "name": "unmerge",
      "outputs": [],
      "stateMutability": "nonpayable",
      "type": "function"
    }
  ],
  "bytecode": "0x60806040523480156200001157600080fd5b506040518060400160405280600981526020017f4d65726765644e465400000000000000000000000000000000000000000000008152506040518060400160405280600381526020017f4d46540000000000000000000000000000000000000000000000000000000000815250816000908051906020019062000096929190620000b8565b508060019080519060200190620000af929190620000b8565b505050620001cd565b828054620000c69062000197565b90600052602060002090601f016020900481019282620000ea576000855562000136565b82601f106200010557805160ff191683800117855562000136565b8280016001018555821562000136579182015b828111156200013557825182559160200191906001019062000118565b5b50905062000145919062000149565b5090565b5b80821115620001645760008160009055506001016200014a565b5090565b7f4e487b7100000000000000000000000000000000000000000000000000000000600052602260045260246000fd5b60006002820490506001821680620001b057607f821691505b60208210811415620001c757620001c662000168565b5b50919050565b612efa80620001dd6000396000f3fe608060405234801561001057600080fd5b50600436106101005760003560e01c80636f80225f11610097578063b88d4fde11610066578063b88d4fde146102bf578063c87b56dd146102db578063ce2634901461030b578063e985e9c51461032757610100565b80636f80225f1461023957806370a082311461025557806395d89b4114610285578063a22cb465146102a357610100565b806323b872dd116100d357806323b872dd1461019f57806342842e0e146101bb5780634513d61a146101d75780636352211e1461020957610100565b806301ffc9a71461010557806306fdde0314610135578063081812fc14610153578063095ea7b314610183575b600080fd5b61011f600480360381019061011a9190611e49565b610357565b60405161012c9190611e91565b60405180910390f35b61013d610439565b60405161014a9190611f45565b60405180910390f35b61016d60048036038101906101689190611f9d565b6104cb565b60405161017a919061200b565b60405180910390f35b61019d60048036038101906101989190612052565b610511565b005b6101b960048036038101906101b49190612092565b610629565b005b6101d560048036038101906101d09190612092565b610689565b005b6101f160048036038101906101ec9190611f9d565b6106a9565b604051610200939291906120f4565b60405180910390f35b610223600480360381019061021e9190611f9d565b610713565b604051610230919061200b565b60405180910390f35b610253600480360381019061024e9190612260565b6107c5565b005b61026f600480360381019061026a91906122cf565b610967565b60405161027c91906122fc565b60405180910390f35b61028d610a1f565b60405161029a9190611f45565b60405180910390f35b6102bd60048036038101906102b89190612343565b610ab1565b005b6102d960048036038101906102d49190612424565b610ac7565b005b6102f560048036038101906102f09190611f9d565b610b29565b6040516103029190611f45565b60405180910390f35b61032560048036038101906103209190611f9d565b610b3b565b005b610341600480360381019061033c91906124a7565b610ca1565b60405161034e9190611e91565b60405180910390f35b60007f80ac58cd000000000000000000000000000000000000000000000000000000007bffffffffffffffffffffffffffffffffffffffffffffffffffffffff1916827bffffffffffffffffffffffffffffffffffffffffffffffffffffffff1916148061042257507f5b5e139f000000000000000000000000000000000000000000000000000000007bffffffffffffffffffffffffffffffffffffffffffffffffffffffff1916827bffffffffffffffffffffffffffffffffffffffffffffffffffffffff1916145b80610432575061043182610d35565b5b9050919050565b60606000805461044890612516565b80601f016020809104026020016040519081016040528092919081815260200182805461047490612516565b80156104c15780601f10610496576101008083540402835291602001916104c1565b820191906000526020600020905b8154815290600101906020018083116104a457829003601f168201915b5050505050905090565b60006104d682610d9f565b6004600083815260200190815260200160002060009054906101000a900473ffffffffffffffffffffffffffffffffffffffff169050919050565b600061051c82610713565b90508073ffffffffffffffffffffffffffffffffffffffff168373ffffffffffffffffffffffffffffffffffffffff16141561058d576040517f08c379a0000000000000000000000000000000000000000000000000000000008152600401610584906125ba565b60405180910390fd5b8073ffffffffffffffffffffffffffffffffffffffff166105ac610dea565b73ffffffffffffffffffffffffffffffffffffffff1614806105db57506105da816105d5610dea565b610ca1565b5b61061a576040517f08c379a00000000000000000000000000000000000000000000000000000000081526004016106119061264c565b60405180910390fd5b6106248383610df2565b505050565b61063a610634610dea565b82610eab565b610679576040517f08c379a0000000000000000000000000000000000000000000000000000000008152600401610670906126de565b60405180910390fd5b610684838383610f40565b505050565b6106a483838360405180602001604052806000815250610ac7565b505050565b60086020528060005260406000206000915090508060000160009054906101000a900473ffffffffffffffffffffffffffffffffffffffff16908060010154908060020160009054906101000a900473ffffffffffffffffffffffffffffffffffffffff16905083565b6000806002600084815260200190815260200160002060009054906101000a900473ffffffffffffffffffffffffffffffffffffffff169050600073ffffffffffffffffffffffffffffffffffffffff168173ffffffffffffffffffffffffffffffffffffffff1614156107bc576040517f08c379a00000000000000000000000000000000000000000000000000000000081526004016107b39061274a565b60405180910390fd5b80915050919050565b60006107d160076111a7565b90506107dd60076111b5565b600060405180606001604052808573ffffffffffffffffffffffffffffffffffffffff1681526020018481526020013373ffffffffffffffffffffffffffffffffffffffff168152509050806008600084815260200190815260200160002060008201518160000160006101000a81548173ffffffffffffffffffffffffffffffffffffffff021916908373ffffffffffffffffffffffffffffffffffffffff1602179055506020820151816001015560408201518160020160006101000a81548173ffffffffffffffffffffffffffffffffffffffff021916908373ffffffffffffffffffffffffffffffffffffffff16021790555090505060008490508073ffffffffffffffffffffffffffffffffffffffff166323b872dd3330876040518463ffffffff1660e01b81526004016109199392919061276a565b600060405180830381600087803b15801561093357600080fd5b505af1158015610947573d6000803e3d6000fd5b5050505061095533846111cb565b61095f83876111e9565b505050505050565b60008073ffffffffffffffffffffffffffffffffffffffff168273ffffffffffffffffffffffffffffffffffffffff1614156109d8576040517f08c379a00000000000000000000000000000000000000000000000000000000081526004016109cf90612813565b60405180910390fd5b600360008373ffffffffffffffffffffffffffffffffffffffff1673ffffffffffffffffffffffffffffffffffffffff168152602001908152602001600020549050919050565b606060018054610a2e90612516565b80601f0160208091040260200160405190810160405280929190818152602001828054610a5a90612516565b8015610aa75780601f10610a7c57610100808354040283529160200191610aa7565b820191906000526020600020905b815481529060010190602001808311610a8a57829003601f168201915b5050505050905090565b610ac3610abc610dea565b838361125d565b5050565b610ad8610ad2610dea565b83610eab565b610b17576040517f08c379a0000000000000000000000000000000000000000000000000000000008152600401610b0e906126de565b60405180910390fd5b610b23848484846113ca565b50505050565b6060610b3482611426565b9050919050565b610b4481611539565b6000600860008381526020019081526020016000206040518060600160405290816000820160009054906101000a900473ffffffffffffffffffffffffffffffffffffffff1673ffffffffffffffffffffffffffffffffffffffff1673ffffffffffffffffffffffffffffffffffffffff168152602001600182015481526020016002820160009054906101000a900473ffffffffffffffffffffffffffffffffffffffff1673ffffffffffffffffffffffffffffffffffffffff1673ffffffffffffffffffffffffffffffffffffffff168152505090506000816000015190508073ffffffffffffffffffffffffffffffffffffffff166323b872dd30846040015185602001516040518463ffffffff1660e01b8152600401610c6a9392919061276a565b600060405180830381600087803b158015610c8457600080fd5b505af1158015610c98573d6000803e3d6000fd5b50505050505050565b6000600560008473ffffffffffffffffffffffffffffffffffffffff1673ffffffffffffffffffffffffffffffffffffffff16815260200190815260200160002060008373ffffffffffffffffffffffffffffffffffffffff1673ffffffffffffffffffffffffffffffffffffffff16815260200190815260200160002060009054906101000a900460ff16905092915050565b60007f01ffc9a7000000000000000000000000000000000000000000000000000000007bffffffffffffffffffffffffffffffffffffffffffffffffffffffff1916827bffffffffffffffffffffffffffffffffffffffffffffffffffffffff1916149050919050565b610da881611545565b610de7576040517f08c379a0000000000000000000000000000000000000000000000000000000008152600401610dde9061274a565b60405180910390fd5b50565b600033905090565b816004600083815260200190815260200160002060006101000a81548173ffffffffffffffffffffffffffffffffffffffff021916908373ffffffffffffffffffffffffffffffffffffffff160217905550808273ffffffffffffffffffffffffffffffffffffffff16610e6583610713565b73ffffffffffffffffffffffffffffffffffffffff167f8c5be1e5ebec7d5bd14f71427d1e84f3dd0314c0f7b2291e5b200ac8c7c3b92560405160405180910390a45050565b600080610eb783610713565b90508073ffffffffffffffffffffffffffffffffffffffff168473ffffffffffffffffffffffffffffffffffffffff161480610ef95750610ef88185610ca1565b5b80610f3757508373ffffffffffffffffffffffffffffffffffffffff16610f1f846104cb565b73ffffffffffffffffffffffffffffffffffffffff16145b91505092915050565b8273ffffffffffffffffffffffffffffffffffffffff16610f6082610713565b73ffffffffffffffffffffffffffffffffffffffff1614610fb6576040517f08c379a0000000000000000000000000000000000000000000000000000000008152600401610fad906128a5565b60405180910390fd5b600073ffffffffffffffffffffffffffffffffffffffff168273ffffffffffffffffffffffffffffffffffffffff161415611026576040517f08c379a000000000000000000000000000000000000000000000000000000000815260040161101d90612937565b60405180910390fd5b6110318383836115b1565b61103c600082610df2565b6001600360008573ffffffffffffffffffffffffffffffffffffffff1673ffffffffffffffffffffffffffffffffffffffff168152602001908152602001600020600082825461108c9190612986565b925050819055506001600360008473ffffffffffffffffffffffffffffffffffffffff1673ffffffffffffffffffffffffffffffffffffffff16815260200190815260200160002060008282546110e391906129ba565b92505081905550816002600083815260200190815260200160002060006101000a81548173ffffffffffffffffffffffffffffffffffffffff021916908373ffffffffffffffffffffffffffffffffffffffff160217905550808273ffffffffffffffffffffffffffffffffffffffff168473ffffffffffffffffffffffffffffffffffffffff167fddf252ad1be2c89b69c2b068fc378daa952ba7f163c4a11628f55a4df523b3ef60405160405180910390a46111a28383836115b6565b505050565b600081600001549050919050565b6001816000016000828254019250508190555050565b6111e58282604051806020016040528060008152506115bb565b5050565b6111f282611545565b611231576040517f08c379a000000000000000000000000000000000000000000000000000000000815260040161122890612a82565b60405180910390fd5b80600660008481526020019081526020016000209080519060200190611258929190611cfa565b505050565b8173ffffffffffffffffffffffffffffffffffffffff168373ffffffffffffffffffffffffffffffffffffffff1614156112cc576040517f08c379a00000000000000000000000000000000000000000000000000000000081526004016112c390612aee565b60405180910390fd5b80600560008573ffffffffffffffffffffffffffffffffffffffff1673ffffffffffffffffffffffffffffffffffffffff16815260200190815260200160002060008473ffffffffffffffffffffffffffffffffffffffff1673ffffffffffffffffffffffffffffffffffffffff16815260200190815260200160002060006101000a81548160ff0219169083151502179055508173ffffffffffffffffffffffffffffffffffffffff168373ffffffffffffffffffffffffffffffffffffffff167f17307eab39ab6107e8899845ad3d59bd9653f200f220920489ca2b5937696c31836040516113bd9190611e91565b60405180910390a3505050565b6113d5848484610f40565b6113e184848484611616565b611420576040517f08c379a000000000000000000000000000000000000000000000000000000000815260040161141790612b80565b60405180910390fd5b50505050565b606061143182610d9f565b600060066000848152602001908152602001600020805461145190612516565b80601f016020809104026020016040519081016040528092919081815260200182805461147d90612516565b80156114ca5780601f1061149f576101008083540402835291602001916114ca565b820191906000526020600020905b8154815290600101906020018083116114ad57829003601f168201915b5050505050905060006114db6117ad565b90506000815114156114f1578192505050611534565b60008251111561152657808260405160200161150e929190612bdc565b60405160208183030381529060405292505050611534565b61152f846117c4565b925050505b919050565b6115428161182c565b50565b60008073ffffffffffffffffffffffffffffffffffffffff166002600084815260200190815260200160002060009054906101000a900473ffffffffffffffffffffffffffffffffffffffff1673ffffffffffffffffffffffffffffffffffffffff1614159050919050565b505050565b505050565b6115c5838361187f565b6115d26000848484611616565b611611576040517f08c379a000000000000000000000000000000000000000000000000000000000815260040161160890612b80565b60405180910390fd5b505050565b60006116378473ffffffffffffffffffffffffffffffffffffffff16611a59565b156117a0578373ffffffffffffffffffffffffffffffffffffffff1663150b7a02611660610dea565b8786866040518563ffffffff1660e01b81526004016116829493929190612c55565b602060405180830381600087803b15801561169c57600080fd5b505af19250505080156116cd57506040513d601f19601f820116820180604052508101906116ca9190612cb6565b60015b611750573d80600081146116fd576040519150601f19603f3d011682016040523d82523d6000602084013e611702565b606091505b50600081511415611748576040517f08c379a000000000000000000000000000000000000000000000000000000000815260040161173f90612b80565b60405180910390fd5b805181602001fd5b63150b7a0260e01b7bffffffffffffffffffffffffffffffffffffffffffffffffffffffff1916817bffffffffffffffffffffffffffffffffffffffffffffffffffffffff1916149150506117a5565b600190505b949350505050565b606060405180602001604052806000815250905090565b60606117cf82610d9f565b60006117d96117ad565b905060008151116117f95760405180602001604052806000815250611824565b8061180384611a7c565b604051602001611814929190612bdc565b6040516020818303038152906040525b915050919050565b61183581611bdd565b600060066000838152602001908152602001600020805461185590612516565b90501461187c5760066000828152602001908152602001600020600061187b9190611d80565b5b50565b600073ffffffffffffffffffffffffffffffffffffffff168273ffffffffffffffffffffffffffffffffffffffff1614156118ef576040517f08c379a00000000000000000000000000000000000000000000000000000000081526004016118e690612d2f565b60405180910390fd5b6118f881611545565b15611938576040517f08c379a000000000000000000000000000000000000000000000000000000000815260040161192f90612d9b565b60405180910390fd5b611944600083836115b1565b6001600360008473ffffffffffffffffffffffffffffffffffffffff1673ffffffffffffffffffffffffffffffffffffffff168152602001908152602001600020600082825461199491906129ba565b92505081905550816002600083815260200190815260200160002060006101000a81548173ffffffffffffffffffffffffffffffffffffffff021916908373ffffffffffffffffffffffffffffffffffffffff160217905550808273ffffffffffffffffffffffffffffffffffffffff16600073ffffffffffffffffffffffffffffffffffffffff167fddf252ad1be2c89b69c2b068fc378daa952ba7f163c4a11628f55a4df523b3ef60405160405180910390a4611a55600083836115b6565b5050565b6000808273ffffffffffffffffffffffffffffffffffffffff163b119050919050565b60606000821415611ac4576040518060400160405280600181526020017f30000000000000000000000000000000000000000000000000000000000000008152509050611bd8565b600082905060005b60008214611af6578080611adf90612dbb565b915050600a82611aef9190612e33565b9150611acc565b60008167ffffffffffffffff811115611b1257611b11612135565b5b6040519080825280601f01601f191660200182016040528015611b445781602001600182028036833780820191505090505b5090505b60008514611bd157600182611b5d9190612986565b9150600a85611b6c9190612e64565b6030611b7891906129ba565b60f81b818381518110611b8e57611b8d612e95565b5b60200101907effffffffffffffffffffffffffffffffffffffffffffffffffffffffffffff1916908160001a905350600a85611bca9190612e33565b9450611b48565b8093505050505b919050565b6000611be882610713565b9050611bf6816000846115b1565b611c01600083610df2565b6001600360008373ffffffffffffffffffffffffffffffffffffffff1673ffffffffffffffffffffffffffffffffffffffff1681526020019081526020016000206000828254611c519190612986565b925050819055506002600083815260200190815260200160002060006101000a81549073ffffffffffffffffffffffffffffffffffffffff021916905581600073ffffffffffffffffffffffffffffffffffffffff168273ffffffffffffffffffffffffffffffffffffffff167fddf252ad1be2c89b69c2b068fc378daa952ba7f163c4a11628f55a4df523b3ef60405160405180910390a4611cf6816000846115b6565b5050565b828054611d0690612516565b90600052602060002090601f016020900481019282611d285760008555611d6f565b82601f10611d4157805160ff1916838001178555611d6f565b82800160010185558215611d6f579182015b82811115611d6e578251825591602001919060010190611d53565b5b509050611d7c9190611dc0565b5090565b508054611d8c90612516565b6000825580601f10611d9e5750611dbd565b601f016020900490600052602060002090810190611dbc9190611dc0565b5b50565b5b80821115611dd9576000816000905550600101611dc1565b5090565b6000604051905090565b600080fd5b600080fd5b60007fffffffff0000000000000000000000000000000000000000000000000000000082169050919050565b611e2681611df1565b8114611e3157600080fd5b50565b600081359050611e4381611e1d565b92915050565b600060208284031215611e5f57611e5e611de7565b5b6000611e6d84828501611e34565b91505092915050565b60008115159050919050565b611e8b81611e76565b82525050565b6000602082019050611ea66000830184611e82565b92915050565b600081519050919050565b600082825260208201905092915050565b60005b83811015611ee6578082015181840152602081019050611ecb565b83811115611ef5576000848401525b50505050565b6000601f19601f8301169050919050565b6000611f1782611eac565b611f218185611eb7565b9350611f31818560208601611ec8565b611f3a81611efb565b840191505092915050565b60006020820190508181036000830152611f5f8184611f0c565b905092915050565b6000819050919050565b611f7a81611f67565b8114611f8557600080fd5b50565b600081359050611f9781611f71565b92915050565b600060208284031215611fb357611fb2611de7565b5b6000611fc184828501611f88565b91505092915050565b600073ffffffffffffffffffffffffffffffffffffffff82169050919050565b6000611ff582611fca565b9050919050565b61200581611fea565b82525050565b60006020820190506120206000830184611ffc565b92915050565b61202f81611fea565b811461203a57600080fd5b50565b60008135905061204c81612026565b92915050565b6000806040838503121561206957612068611de7565b5b60006120778582860161203d565b925050602061208885828601611f88565b9150509250929050565b6000806000606084860312156120ab576120aa611de7565b5b60006120b98682870161203d565b93505060206120ca8682870161203d565b92505060406120db86828701611f88565b9150509250925092565b6120ee81611f67565b82525050565b60006060820190506121096000830186611ffc565b61211660208301856120e5565b6121236040830184611ffc565b949350505050565b600080fd5b600080fd5b7f4e487b7100000000000000000000000000000000000000000000000000000000600052604160045260246000fd5b61216d82611efb565b810181811067ffffffffffffffff8211171561218c5761218b612135565b5b80604052505050565b600061219f611ddd565b90506121ab8282612164565b919050565b600067ffffffffffffffff8211156121cb576121ca612135565b5b6121d482611efb565b9050602081019050919050565b82818337600083830152505050565b60006122036121fe846121b0565b612195565b90508281526020810184848401111561221f5761221e612130565b5b61222a8482856121e1565b509392505050565b600082601f8301126122475761224661212b565b5b81356122578482602086016121f0565b91505092915050565b60008060006060848603121561227957612278611de7565b5b600084013567ffffffffffffffff81111561229757612296611dec565b5b6122a386828701612232565b93505060206122b48682870161203d565b92505060406122c586828701611f88565b9150509250925092565b6000602082840312156122e5576122e4611de7565b5b60006122f38482850161203d565b91505092915050565b600060208201905061231160008301846120e5565b92915050565b61232081611e76565b811461232b57600080fd5b50565b60008135905061233d81612317565b92915050565b6000806040838503121561235a57612359611de7565b5b60006123688582860161203d565b92505060206123798582860161232e565b9150509250929050565b600067ffffffffffffffff82111561239e5761239d612135565b5b6123a782611efb565b9050602081019050919050565b60006123c76123c284612383565b612195565b9050828152602081018484840111156123e3576123e2612130565b5b6123ee8482856121e1565b509392505050565b600082601f83011261240b5761240a61212b565b5b813561241b8482602086016123b4565b91505092915050565b6000806000806080858703121561243e5761243d611de7565b5b600061244c8782880161203d565b945050602061245d8782880161203d565b935050604061246e87828801611f88565b925050606085013567ffffffffffffffff81111561248f5761248e611dec565b5b61249b878288016123f6565b91505092959194509250565b600080604083850312156124be576124bd611de7565b5b60006124cc8582860161203d565b92505060206124dd8582860161203d565b9150509250929050565b7f4e487b7100000000000000000000000000000000000000000000000000000000600052602260045260246000fd5b6000600282049050600182168061252e57607f821691505b60208210811415612542576125416124e7565b5b50919050565b7f4552433732313a20617070726f76616c20746f2063757272656e74206f776e6560008201527f7200000000000000000000000000000000000000000000000000000000000000602082015250565b60006125a4602183611eb7565b91506125af82612548565b604082019050919050565b600060208201905081810360008301526125d381612597565b9050919050565b7f4552433732313a20617070726f76652063616c6c6572206973206e6f7420746f60008201527f6b656e206f776e6572206e6f7220617070726f76656420666f7220616c6c0000602082015250565b6000612636603e83611eb7565b9150612641826125da565b604082019050919050565b6000602082019050818103600083015261266581612629565b9050919050565b7f4552433732313a2063616c6c6572206973206e6f7420746f6b656e206f776e6560008201527f72206e6f7220617070726f766564000000000000000000000000000000000000602082015250565b60006126c8602e83611eb7565b91506126d38261266c565b604082019050919050565b600060208201905081810360008301526126f7816126bb565b9050919050565b7f4552433732313a20696e76616c696420746f6b656e2049440000000000000000600082015250565b6000612734601883611eb7565b915061273f826126fe565b602082019050919050565b6000602082019050818103600083015261276381612727565b9050919050565b600060608201905061277f6000830186611ffc565b61278c6020830185611ffc565b61279960408301846120e5565b949350505050565b7f4552433732313a2061646472657373207a65726f206973206e6f74206120766160008201527f6c6964206f776e65720000000000000000000000000000000000000000000000602082015250565b60006127fd602983611eb7565b9150612808826127a1565b604082019050919050565b6000602082019050818103600083015261282c816127f0565b9050919050565b7f4552433732313a207472616e736665722066726f6d20696e636f72726563742060008201527f6f776e6572000000000000000000000000000000000000000000000000000000602082015250565b600061288f602583611eb7565b915061289a82612833565b604082019050919050565b600060208201905081810360008301526128be81612882565b9050919050565b7f4552433732313a207472616e7366657220746f20746865207a65726f2061646460008201527f7265737300000000000000000000000000000000000000000000000000000000602082015250565b6000612921602483611eb7565b915061292c826128c5565b604082019050919050565b6000602082019050818103600083015261295081612914565b9050919050565b7f4e487b7100000000000000000000000000000000000000000000000000000000600052601160045260246000fd5b600061299182611f67565b915061299c83611f67565b9250828210156129af576129ae612957565b5b828203905092915050565b60006129c582611f67565b91506129d083611f67565b9250827fffffffffffffffffffffffffffffffffffffffffffffffffffffffffffffffff03821115612a0557612a04612957565b5b828201905092915050565b7f45524337323155524953746f726167653a2055524920736574206f66206e6f6e60008201527f6578697374656e7420746f6b656e000000000000000000000000000000000000602082015250565b6000612a6c602e83611eb7565b9150612a7782612a10565b604082019050919050565b60006020820190508181036000830152612a9b81612a5f565b9050919050565b7f4552433732313a20617070726f766520746f2063616c6c657200000000000000600082015250565b6000612ad8601983611eb7565b9150612ae382612aa2565b602082019050919050565b60006020820190508181036000830152612b0781612acb565b9050919050565b7f4552433732313a207472616e7366657220746f206e6f6e20455243373231526560008201527f63656976657220696d706c656d656e7465720000000000000000000000000000602082015250565b6000612b6a603283611eb7565b9150612b7582612b0e565b604082019050919050565b60006020820190508181036000830152612b9981612b5d565b9050919050565b600081905092915050565b6000612bb682611eac565b612bc08185612ba0565b9350612bd0818560208601611ec8565b80840191505092915050565b6000612be88285612bab565b9150612bf48284612bab565b91508190509392505050565b600081519050919050565b600082825260208201905092915050565b6000612c2782612c00565b612c318185612c0b565b9350612c41818560208601611ec8565b612c4a81611efb565b840191505092915050565b6000608082019050612c6a6000830187611ffc565b612c776020830186611ffc565b612c8460408301856120e5565b8181036060830152612c968184612c1c565b905095945050505050565b600081519050612cb081611e1d565b92915050565b600060208284031215612ccc57612ccb611de7565b5b6000612cda84828501612ca1565b91505092915050565b7f4552433732313a206d696e7420746f20746865207a65726f2061646472657373600082015250565b6000612d19602083611eb7565b9150612d2482612ce3565b602082019050919050565b60006020820190508181036000830152612d4881612d0c565b9050919050565b7f4552433732313a20746f6b656e20616c7265616479206d696e74656400000000600082015250565b6000612d85601c83611eb7565b9150612d9082612d4f565b602082019050919050565b60006020820190508181036000830152612db481612d78565b9050919050565b6000612dc682611f67565b91507fffffffffffffffffffffffffffffffffffffffffffffffffffffffffffffffff821415612df957612df8612957565b5b600182019050919050565b7f4e487b7100000000000000000000000000000000000000000000000000000000600052601260045260246000fd5b6000612e3e82611f67565b9150612e4983611f67565b925082612e5957612e58612e04565b5b828204905092915050565b6000612e6f82611f67565b9150612e7a83611f67565b925082612e8a57612e89612e04565b5b828206905092915050565b7f4e487b7100000000000000000000000000000000000000000000000000000000600052603260045260246000fdfea2646970667358221220b5410d32a906bb487bf8fed7875b83dfb60ed427949a32a94915254882f1bafb64736f6c63430008090033",
  "linkReferences": {},
  "deployedLinkReferences": {}
}