{
  "_format": "hh-sol-artifact-1",
  "contractName": "Frame",
  "sourceName": "src/backend/contracts/Frame.sol",
  "abi": [
    {
      "inputs": [
        {
          "internalType": "string",
          "name": "_baseURI",
          "type": "string"
        }
      ],
      "stateMutability": "nonpayable",
      "type": "constructor"
    },
    {
      "anonymous": false,
      "inputs": [
        {
          "indexed": true,
          "internalType": "address",
          "name": "account",
          "type": "address"
        },
        {
          "indexed": true,
          "internalType": "address",
          "name": "operator",
          "type": "address"
        },
        {
          "indexed": false,
          "internalType": "bool",
          "name": "approved",
          "type": "bool"
        }
      ],
      "name": "ApprovalForAll",
      "type": "event"
    },
    {
      "anonymous": false,
      "inputs": [
        {
          "indexed": true,
          "internalType": "address",
          "name": "previousOwner",
          "type": "address"
        },
        {
          "indexed": true,
          "internalType": "address",
          "name": "newOwner",
          "type": "address"
        }
      ],
      "name": "OwnershipTransferred",
      "type": "event"
    },
    {
      "anonymous": false,
      "inputs": [
        {
          "indexed": true,
          "internalType": "address",
          "name": "operator",
          "type": "address"
        },
        {
          "indexed": true,
          "internalType": "address",
          "name": "from",
          "type": "address"
        },
        {
          "indexed": true,
          "internalType": "address",
          "name": "to",
          "type": "address"
        },
        {
          "indexed": false,
          "internalType": "uint256[]",
          "name": "ids",
          "type": "uint256[]"
        },
        {
          "indexed": false,
          "internalType": "uint256[]",
          "name": "values",
          "type": "uint256[]"
        }
      ],
      "name": "TransferBatch",
      "type": "event"
    },
    {
      "anonymous": false,
      "inputs": [
        {
          "indexed": true,
          "internalType": "address",
          "name": "operator",
          "type": "address"
        },
        {
          "indexed": true,
          "internalType": "address",
          "name": "from",
          "type": "address"
        },
        {
          "indexed": true,
          "internalType": "address",
          "name": "to",
          "type": "address"
        },
        {
          "indexed": false,
          "internalType": "uint256",
          "name": "id",
          "type": "uint256"
        },
        {
          "indexed": false,
          "internalType": "uint256",
          "name": "value",
          "type": "uint256"
        }
      ],
      "name": "TransferSingle",
      "type": "event"
    },
    {
      "anonymous": false,
      "inputs": [
        {
          "indexed": false,
          "internalType": "string",
          "name": "value",
          "type": "string"
        },
        {
          "indexed": true,
          "internalType": "uint256",
          "name": "id",
          "type": "uint256"
        }
      ],
      "name": "URI",
      "type": "event"
    },
    {
      "inputs": [
        {
          "internalType": "address",
          "name": "account",
          "type": "address"
        },
        {
          "internalType": "uint256",
          "name": "id",
          "type": "uint256"
        }
      ],
      "name": "balanceOf",
      "outputs": [
        {
          "internalType": "uint256",
          "name": "",
          "type": "uint256"
        }
      ],
      "stateMutability": "view",
      "type": "function"
    },
    {
      "inputs": [
        {
          "internalType": "address[]",
          "name": "accounts",
          "type": "address[]"
        },
        {
          "internalType": "uint256[]",
          "name": "ids",
          "type": "uint256[]"
        }
      ],
      "name": "balanceOfBatch",
      "outputs": [
        {
          "internalType": "uint256[]",
          "name": "",
          "type": "uint256[]"
        }
      ],
      "stateMutability": "view",
      "type": "function"
    },
    {
      "inputs": [
        {
          "internalType": "uint256",
          "name": "id",
          "type": "uint256"
        }
      ],
      "name": "exists",
      "outputs": [
        {
          "internalType": "bool",
          "name": "",
          "type": "bool"
        }
      ],
      "stateMutability": "view",
      "type": "function"
    },
    {
      "inputs": [
        {
          "internalType": "address",
          "name": "account",
          "type": "address"
        },
        {
          "internalType": "address",
          "name": "operator",
          "type": "address"
        }
      ],
      "name": "isApprovedForAll",
      "outputs": [
        {
          "internalType": "bool",
          "name": "",
          "type": "bool"
        }
      ],
      "stateMutability": "view",
      "type": "function"
    },
    {
      "inputs": [
        {
          "internalType": "uint256",
          "name": "id",
          "type": "uint256"
        }
      ],
      "name": "mint",
      "outputs": [],
      "stateMutability": "nonpayable",
      "type": "function"
    },
    {
      "inputs": [
        {
          "internalType": "address",
          "name": "to",
          "type": "address"
        },
        {
          "internalType": "uint256[]",
          "name": "ids",
          "type": "uint256[]"
        },
        {
          "internalType": "uint256[]",
          "name": "amounts",
          "type": "uint256[]"
        },
        {
          "internalType": "bytes",
          "name": "data",
          "type": "bytes"
        }
      ],
      "name": "mintBatch",
      "outputs": [],
      "stateMutability": "nonpayable",
      "type": "function"
    },
    {
      "inputs": [],
      "name": "owner",
      "outputs": [
        {
          "internalType": "address",
          "name": "",
          "type": "address"
        }
      ],
      "stateMutability": "view",
      "type": "function"
    },
    {
      "inputs": [],
      "name": "renounceOwnership",
      "outputs": [],
      "stateMutability": "nonpayable",
      "type": "function"
    },
    {
      "inputs": [
        {
          "internalType": "address",
          "name": "from",
          "type": "address"
        },
        {
          "internalType": "address",
          "name": "to",
          "type": "address"
        },
        {
          "internalType": "uint256[]",
          "name": "ids",
          "type": "uint256[]"
        },
        {
          "internalType": "uint256[]",
          "name": "amounts",
          "type": "uint256[]"
        },
        {
          "internalType": "bytes",
          "name": "data",
          "type": "bytes"
        }
      ],
      "name": "safeBatchTransferFrom",
      "outputs": [],
      "stateMutability": "nonpayable",
      "type": "function"
    },
    {
      "inputs": [
        {
          "internalType": "address",
          "name": "from",
          "type": "address"
        },
        {
          "internalType": "address",
          "name": "to",
          "type": "address"
        },
        {
          "internalType": "uint256",
          "name": "id",
          "type": "uint256"
        },
        {
          "internalType": "uint256",
          "name": "amount",
          "type": "uint256"
        },
        {
          "internalType": "bytes",
          "name": "data",
          "type": "bytes"
        }
      ],
      "name": "safeTransferFrom",
      "outputs": [],
      "stateMutability": "nonpayable",
      "type": "function"
    },
    {
      "inputs": [
        {
          "internalType": "address",
          "name": "operator",
          "type": "address"
        },
        {
          "internalType": "bool",
          "name": "approved",
          "type": "bool"
        }
      ],
      "name": "setApprovalForAll",
      "outputs": [],
      "stateMutability": "nonpayable",
      "type": "function"
    },
    {
      "inputs": [
        {
          "internalType": "string",
          "name": "newuri",
          "type": "string"
        }
      ],
      "name": "setURI",
      "outputs": [],
      "stateMutability": "nonpayable",
      "type": "function"
    },
    {
      "inputs": [
        {
          "internalType": "bytes4",
          "name": "interfaceId",
          "type": "bytes4"
        }
      ],
      "name": "supportsInterface",
      "outputs": [
        {
          "internalType": "bool",
          "name": "",
          "type": "bool"
        }
      ],
      "stateMutability": "view",
      "type": "function"
    },
    {
      "inputs": [
        {
          "internalType": "uint256",
          "name": "id",
          "type": "uint256"
        }
      ],
      "name": "totalSupply",
      "outputs": [
        {
          "internalType": "uint256",
          "name": "",
          "type": "uint256"
        }
      ],
      "stateMutability": "view",
      "type": "function"
    },
    {
      "inputs": [
        {
          "internalType": "address",
          "name": "newOwner",
          "type": "address"
        }
      ],
      "name": "transferOwnership",
      "outputs": [],
      "stateMutability": "nonpayable",
      "type": "function"
    },
    {
      "inputs": [
        {
          "internalType": "uint256",
          "name": "tokenId",
          "type": "uint256"
        }
      ],
      "name": "uri",
      "outputs": [
        {
          "internalType": "string",
          "name": "",
          "type": "string"
        }
      ],
      "stateMutability": "view",
      "type": "function"
    }
  ],
  "bytecode": "0x60806040523480156200001157600080fd5b5060405162003c9238038062003c928339818101604052810190620000379190620003c1565b8062000049816200008a60201b60201c565b506200006a6200005e620000a660201b60201c565b620000ae60201b60201c565b80600590805190602001906200008292919062000174565b505062000477565b8060029080519060200190620000a292919062000174565b5050565b600033905090565b6000600360009054906101000a900473ffffffffffffffffffffffffffffffffffffffff16905081600360006101000a81548173ffffffffffffffffffffffffffffffffffffffff021916908373ffffffffffffffffffffffffffffffffffffffff1602179055508173ffffffffffffffffffffffffffffffffffffffff168173ffffffffffffffffffffffffffffffffffffffff167f8be0079c531659141344cd1fd0a4f28419497f9722a3daafe3b4186f6b6457e060405160405180910390a35050565b828054620001829062000441565b90600052602060002090601f016020900481019282620001a65760008555620001f2565b82601f10620001c157805160ff1916838001178555620001f2565b82800160010185558215620001f2579182015b82811115620001f1578251825591602001919060010190620001d4565b5b50905062000201919062000205565b5090565b5b808211156200022057600081600090555060010162000206565b5090565b6000604051905090565b600080fd5b600080fd5b600080fd5b600080fd5b6000601f19601f8301169050919050565b7f4e487b7100000000000000000000000000000000000000000000000000000000600052604160045260246000fd5b6200028d8262000242565b810181811067ffffffffffffffff82111715620002af57620002ae62000253565b5b80604052505050565b6000620002c462000224565b9050620002d2828262000282565b919050565b600067ffffffffffffffff821115620002f557620002f462000253565b5b620003008262000242565b9050602081019050919050565b60005b838110156200032d57808201518184015260208101905062000310565b838111156200033d576000848401525b50505050565b60006200035a6200035484620002d7565b620002b8565b9050828152602081018484840111156200037957620003786200023d565b5b620003868482856200030d565b509392505050565b600082601f830112620003a657620003a562000238565b5b8151620003b884826020860162000343565b91505092915050565b600060208284031215620003da57620003d96200022e565b5b600082015167ffffffffffffffff811115620003fb57620003fa62000233565b5b62000409848285016200038e565b91505092915050565b7f4e487b7100000000000000000000000000000000000000000000000000000000600052602260045260246000fd5b600060028204905060018216806200045a57607f821691505b6020821081141562000471576200047062000412565b5b50919050565b61380b80620004876000396000f3fe608060405234801561001057600080fd5b50600436106100ff5760003560e01c8063715018a611610097578063bd85b03911610066578063bd85b039146102a8578063e985e9c5146102d8578063f242432a14610308578063f2fde38b14610324576100ff565b8063715018a6146102485780638da5cb5b14610252578063a0712d6814610270578063a22cb4651461028c576100ff565b80631f7fdffa116100d35780631f7fdffa146101b05780632eb2c2d6146101cc5780634e1273f4146101e85780634f558e7914610218576100ff565b8062fdd58e1461010457806301ffc9a71461013457806302fe5305146101645780630e89341c14610180575b600080fd5b61011e60048036038101906101199190612037565b610340565b60405161012b9190612086565b60405180910390f35b61014e600480360381019061014991906120f9565b610409565b60405161015b9190612141565b60405180910390f35b61017e600480360381019061017991906122a2565b6104eb565b005b61019a600480360381019061019591906122eb565b6104ff565b6040516101a791906123a0565b60405180910390f35b6101ca60048036038101906101c5919061252b565b61061e565b005b6101e660048036038101906101e191906125e6565b610638565b005b61020260048036038101906101fd9190612778565b6106d9565b60405161020f91906128ae565b60405180910390f35b610232600480360381019061022d91906122eb565b6107f2565b60405161023f9190612141565b60405180910390f35b610250610806565b005b61025a61081a565b60405161026791906128df565b60405180910390f35b61028a600480360381019061028591906122eb565b610844565b005b6102a660048036038101906102a19190612926565b610863565b005b6102c260048036038101906102bd91906122eb565b610879565b6040516102cf9190612086565b60405180910390f35b6102f260048036038101906102ed9190612966565b610896565b6040516102ff9190612141565b60405180910390f35b610322600480360381019061031d91906129a6565b61092a565b005b61033e60048036038101906103399190612a3d565b6109cb565b005b60008073ffffffffffffffffffffffffffffffffffffffff168373ffffffffffffffffffffffffffffffffffffffff1614156103b1576040517f08c379a00000000000000000000000000000000000000000000000000000000081526004016103a890612adc565b60405180910390fd5b60008083815260200190815260200160002060008473ffffffffffffffffffffffffffffffffffffffff1673ffffffffffffffffffffffffffffffffffffffff16815260200190815260200160002054905092915050565b60007fd9b67a26000000000000000000000000000000000000000000000000000000007bffffffffffffffffffffffffffffffffffffffffffffffffffffffff1916827bffffffffffffffffffffffffffffffffffffffffffffffffffffffff191614806104d457507f0e89341c000000000000000000000000000000000000000000000000000000007bffffffffffffffffffffffffffffffffffffffffffffffffffffffff1916827bffffffffffffffffffffffffffffffffffffffffffffffffffffffff1916145b806104e457506104e382610a4f565b5b9050919050565b6104f3610ab9565b6104fc81610b37565b50565b60606002821115610545576040517f08c379a000000000000000000000000000000000000000000000000000000000815260040161053c90612b6e565b60405180910390fd5b60006005805461055490612bbd565b9050116105eb576005805461056890612bbd565b80601f016020809104026020016040519081016040528092919081815260200182805461059490612bbd565b80156105e15780601f106105b6576101008083540402835291602001916105e1565b820191906000526020600020905b8154815290600101906020018083116105c457829003601f168201915b5050505050610617565b60056105f683610b51565b604051602001610607929190612cbf565b6040516020818303038152906040525b9050919050565b610626610ab9565b61063284848484610cb2565b50505050565b610640610edf565b73ffffffffffffffffffffffffffffffffffffffff168573ffffffffffffffffffffffffffffffffffffffff161480610686575061068585610680610edf565b610896565b5b6106c5576040517f08c379a00000000000000000000000000000000000000000000000000000000081526004016106bc90612d55565b60405180910390fd5b6106d28585858585610ee7565b5050505050565b6060815183511461071f576040517f08c379a000000000000000000000000000000000000000000000000000000000815260040161071690612de7565b60405180910390fd5b6000835167ffffffffffffffff81111561073c5761073b612177565b5b60405190808252806020026020018201604052801561076a5781602001602082028036833780820191505090505b50905060005b84518110156107e7576107b785828151811061078f5761078e612e07565b5b60200260200101518583815181106107aa576107a9612e07565b5b6020026020010151610340565b8282815181106107ca576107c9612e07565b5b602002602001018181525050806107e090612e65565b9050610770565b508091505092915050565b6000806107fe83610879565b119050919050565b61080e610ab9565b6108186000611209565b565b6000600360009054906101000a900473ffffffffffffffffffffffffffffffffffffffff16905090565b61086033826001604051806020016040528060008152506112cf565b50565b61087561086e610edf565b8383611480565b5050565b600060046000838152602001908152602001600020549050919050565b6000600160008473ffffffffffffffffffffffffffffffffffffffff1673ffffffffffffffffffffffffffffffffffffffff16815260200190815260200160002060008373ffffffffffffffffffffffffffffffffffffffff1673ffffffffffffffffffffffffffffffffffffffff16815260200190815260200160002060009054906101000a900460ff16905092915050565b610932610edf565b73ffffffffffffffffffffffffffffffffffffffff168573ffffffffffffffffffffffffffffffffffffffff161480610978575061097785610972610edf565b610896565b5b6109b7576040517f08c379a00000000000000000000000000000000000000000000000000000000081526004016109ae90612d55565b60405180910390fd5b6109c485858585856115ed565b5050505050565b6109d3610ab9565b600073ffffffffffffffffffffffffffffffffffffffff168173ffffffffffffffffffffffffffffffffffffffff161415610a43576040517f08c379a0000000000000000000000000000000000000000000000000000000008152600401610a3a90612f20565b60405180910390fd5b610a4c81611209565b50565b60007f01ffc9a7000000000000000000000000000000000000000000000000000000007bffffffffffffffffffffffffffffffffffffffffffffffffffffffff1916827bffffffffffffffffffffffffffffffffffffffffffffffffffffffff1916149050919050565b610ac1610edf565b73ffffffffffffffffffffffffffffffffffffffff16610adf61081a565b73ffffffffffffffffffffffffffffffffffffffff1614610b35576040517f08c379a0000000000000000000000000000000000000000000000000000000008152600401610b2c90612f8c565b60405180910390fd5b565b8060029080519060200190610b4d929190611eec565b5050565b60606000821415610b99576040518060400160405280600181526020017f30000000000000000000000000000000000000000000000000000000000000008152509050610cad565b600082905060005b60008214610bcb578080610bb490612e65565b915050600a82610bc49190612fdb565b9150610ba1565b60008167ffffffffffffffff811115610be757610be6612177565b5b6040519080825280601f01601f191660200182016040528015610c195781602001600182028036833780820191505090505b5090505b60008514610ca657600182610c32919061300c565b9150600a85610c419190613040565b6030610c4d9190613071565b60f81b818381518110610c6357610c62612e07565b5b60200101907effffffffffffffffffffffffffffffffffffffffffffffffffffffffffffff1916908160001a905350600a85610c9f9190612fdb565b9450610c1d565b8093505050505b919050565b600073ffffffffffffffffffffffffffffffffffffffff168473ffffffffffffffffffffffffffffffffffffffff161415610d22576040517f08c379a0000000000000000000000000000000000000000000000000000000008152600401610d1990613139565b60405180910390fd5b8151835114610d66576040517f08c379a0000000000000000000000000000000000000000000000000000000008152600401610d5d906131cb565b60405180910390fd5b6000610d70610edf565b9050610d8181600087878787611889565b60005b8451811015610e3a57838181518110610da057610d9f612e07565b5b6020026020010151600080878481518110610dbe57610dbd612e07565b5b6020026020010151815260200190815260200160002060008873ffffffffffffffffffffffffffffffffffffffff1673ffffffffffffffffffffffffffffffffffffffff1681526020019081526020016000206000828254610e209190613071565b925050819055508080610e3290612e65565b915050610d84565b508473ffffffffffffffffffffffffffffffffffffffff16600073ffffffffffffffffffffffffffffffffffffffff168273ffffffffffffffffffffffffffffffffffffffff167f4a39dc06d4c0dbc64b70af90fd698a233a518aa5d07e595d983b8c0526c8f7fb8787604051610eb29291906131eb565b60405180910390a4610ec98160008787878761189f565b610ed8816000878787876118a7565b5050505050565b600033905090565b8151835114610f2b576040517f08c379a0000000000000000000000000000000000000000000000000000000008152600401610f22906131cb565b60405180910390fd5b600073ffffffffffffffffffffffffffffffffffffffff168473ffffffffffffffffffffffffffffffffffffffff161415610f9b576040517f08c379a0000000000000000000000000000000000000000000000000000000008152600401610f9290613294565b60405180910390fd5b6000610fa5610edf565b9050610fb5818787878787611889565b60005b8451811015611166576000858281518110610fd657610fd5612e07565b5b602002602001015190506000858381518110610ff557610ff4612e07565b5b60200260200101519050600080600084815260200190815260200160002060008b73ffffffffffffffffffffffffffffffffffffffff1673ffffffffffffffffffffffffffffffffffffffff16815260200190815260200160002054905081811015611096576040517f08c379a000000000000000000000000000000000000000000000000000000000815260040161108d90613326565b60405180910390fd5b81810360008085815260200190815260200160002060008c73ffffffffffffffffffffffffffffffffffffffff1673ffffffffffffffffffffffffffffffffffffffff168152602001908152602001600020819055508160008085815260200190815260200160002060008b73ffffffffffffffffffffffffffffffffffffffff1673ffffffffffffffffffffffffffffffffffffffff168152602001908152602001600020600082825461114b9190613071565b925050819055505050508061115f90612e65565b9050610fb8565b508473ffffffffffffffffffffffffffffffffffffffff168673ffffffffffffffffffffffffffffffffffffffff168273ffffffffffffffffffffffffffffffffffffffff167f4a39dc06d4c0dbc64b70af90fd698a233a518aa5d07e595d983b8c0526c8f7fb87876040516111dd9291906131eb565b60405180910390a46111f381878787878761189f565b6112018187878787876118a7565b505050505050565b6000600360009054906101000a900473ffffffffffffffffffffffffffffffffffffffff16905081600360006101000a81548173ffffffffffffffffffffffffffffffffffffffff021916908373ffffffffffffffffffffffffffffffffffffffff1602179055508173ffffffffffffffffffffffffffffffffffffffff168173ffffffffffffffffffffffffffffffffffffffff167f8be0079c531659141344cd1fd0a4f28419497f9722a3daafe3b4186f6b6457e060405160405180910390a35050565b600073ffffffffffffffffffffffffffffffffffffffff168473ffffffffffffffffffffffffffffffffffffffff16141561133f576040517f08c379a000000000000000000000000000000000000000000000000000000000815260040161133690613139565b60405180910390fd5b6000611349610edf565b9050600061135685611a8e565b9050600061136385611a8e565b905061137483600089858589611889565b8460008088815260200190815260200160002060008973ffffffffffffffffffffffffffffffffffffffff1673ffffffffffffffffffffffffffffffffffffffff16815260200190815260200160002060008282546113d39190613071565b925050819055508673ffffffffffffffffffffffffffffffffffffffff16600073ffffffffffffffffffffffffffffffffffffffff168473ffffffffffffffffffffffffffffffffffffffff167fc3d58168c5ae7397731d063d5bbf3d657854427343f4c083240f7aacaa2d0f628989604051611451929190613346565b60405180910390a46114688360008985858961189f565b61147783600089898989611b08565b50505050505050565b8173ffffffffffffffffffffffffffffffffffffffff168373ffffffffffffffffffffffffffffffffffffffff1614156114ef576040517f08c379a00000000000000000000000000000000000000000000000000000000081526004016114e6906133e1565b60405180910390fd5b80600160008573ffffffffffffffffffffffffffffffffffffffff1673ffffffffffffffffffffffffffffffffffffffff16815260200190815260200160002060008473ffffffffffffffffffffffffffffffffffffffff1673ffffffffffffffffffffffffffffffffffffffff16815260200190815260200160002060006101000a81548160ff0219169083151502179055508173ffffffffffffffffffffffffffffffffffffffff168373ffffffffffffffffffffffffffffffffffffffff167f17307eab39ab6107e8899845ad3d59bd9653f200f220920489ca2b5937696c31836040516115e09190612141565b60405180910390a3505050565b600073ffffffffffffffffffffffffffffffffffffffff168473ffffffffffffffffffffffffffffffffffffffff16141561165d576040517f08c379a000000000000000000000000000000000000000000000000000000000815260040161165490613294565b60405180910390fd5b6000611667610edf565b9050600061167485611a8e565b9050600061168185611a8e565b9050611691838989858589611889565b600080600088815260200190815260200160002060008a73ffffffffffffffffffffffffffffffffffffffff1673ffffffffffffffffffffffffffffffffffffffff16815260200190815260200160002054905085811015611728576040517f08c379a000000000000000000000000000000000000000000000000000000000815260040161171f90613326565b60405180910390fd5b85810360008089815260200190815260200160002060008b73ffffffffffffffffffffffffffffffffffffffff1673ffffffffffffffffffffffffffffffffffffffff168152602001908152602001600020819055508560008089815260200190815260200160002060008a73ffffffffffffffffffffffffffffffffffffffff1673ffffffffffffffffffffffffffffffffffffffff16815260200190815260200160002060008282546117dd9190613071565b925050819055508773ffffffffffffffffffffffffffffffffffffffff168973ffffffffffffffffffffffffffffffffffffffff168573ffffffffffffffffffffffffffffffffffffffff167fc3d58168c5ae7397731d063d5bbf3d657854427343f4c083240f7aacaa2d0f628a8a60405161185a929190613346565b60405180910390a4611870848a8a86868a61189f565b61187e848a8a8a8a8a611b08565b505050505050505050565b611897868686868686611cef565b505050505050565b505050505050565b6118c68473ffffffffffffffffffffffffffffffffffffffff16611ec1565b15611a86578373ffffffffffffffffffffffffffffffffffffffff1663bc197c8187878686866040518663ffffffff1660e01b815260040161190c959493929190613456565b602060405180830381600087803b15801561192657600080fd5b505af192505050801561195757506040513d601f19601f8201168201806040525081019061195491906134d3565b60015b6119fd5761196361350d565b806308c379a014156119c0575061197861352f565b8061198357506119c2565b806040517f08c379a00000000000000000000000000000000000000000000000000000000081526004016119b791906123a0565b60405180910390fd5b505b6040517f08c379a00000000000000000000000000000000000000000000000000000000081526004016119f490613637565b60405180910390fd5b63bc197c8160e01b7bffffffffffffffffffffffffffffffffffffffffffffffffffffffff1916817bffffffffffffffffffffffffffffffffffffffffffffffffffffffff191614611a84576040517f08c379a0000000000000000000000000000000000000000000000000000000008152600401611a7b906136c9565b60405180910390fd5b505b505050505050565b60606000600167ffffffffffffffff811115611aad57611aac612177565b5b604051908082528060200260200182016040528015611adb5781602001602082028036833780820191505090505b5090508281600081518110611af357611af2612e07565b5b60200260200101818152505080915050919050565b611b278473ffffffffffffffffffffffffffffffffffffffff16611ec1565b15611ce7578373ffffffffffffffffffffffffffffffffffffffff1663f23a6e6187878686866040518663ffffffff1660e01b8152600401611b6d9594939291906136e9565b602060405180830381600087803b158015611b8757600080fd5b505af1925050508015611bb857506040513d601f19601f82011682018060405250810190611bb591906134d3565b60015b611c5e57611bc461350d565b806308c379a01415611c215750611bd961352f565b80611be45750611c23565b806040517f08c379a0000000000000000000000000000000000000000000000000000000008152600401611c1891906123a0565b60405180910390fd5b505b6040517f08c379a0000000000000000000000000000000000000000000000000000000008152600401611c5590613637565b60405180910390fd5b63f23a6e6160e01b7bffffffffffffffffffffffffffffffffffffffffffffffffffffffff1916817bffffffffffffffffffffffffffffffffffffffffffffffffffffffff191614611ce5576040517f08c379a0000000000000000000000000000000000000000000000000000000008152600401611cdc906136c9565b60405180910390fd5b505b505050505050565b611cfd868686868686611ee4565b600073ffffffffffffffffffffffffffffffffffffffff168573ffffffffffffffffffffffffffffffffffffffff161415611daf5760005b8351811015611dad57828181518110611d5157611d50612e07565b5b602002602001015160046000868481518110611d7057611d6f612e07565b5b602002602001015181526020019081526020016000206000828254611d959190613071565b9250508190555080611da690612e65565b9050611d35565b505b600073ffffffffffffffffffffffffffffffffffffffff168473ffffffffffffffffffffffffffffffffffffffff161415611eb95760005b8351811015611eb7576000848281518110611e0557611e04612e07565b5b602002602001015190506000848381518110611e2457611e23612e07565b5b6020026020010151905060006004600084815260200190815260200160002054905081811015611e89576040517f08c379a0000000000000000000000000000000000000000000000000000000008152600401611e80906137b5565b60405180910390fd5b818103600460008581526020019081526020016000208190555050505080611eb090612e65565b9050611de7565b505b505050505050565b6000808273ffffffffffffffffffffffffffffffffffffffff163b119050919050565b505050505050565b828054611ef890612bbd565b90600052602060002090601f016020900481019282611f1a5760008555611f61565b82601f10611f3357805160ff1916838001178555611f61565b82800160010185558215611f61579182015b82811115611f60578251825591602001919060010190611f45565b5b509050611f6e9190611f72565b5090565b5b80821115611f8b576000816000905550600101611f73565b5090565b6000604051905090565b600080fd5b600080fd5b600073ffffffffffffffffffffffffffffffffffffffff82169050919050565b6000611fce82611fa3565b9050919050565b611fde81611fc3565b8114611fe957600080fd5b50565b600081359050611ffb81611fd5565b92915050565b6000819050919050565b61201481612001565b811461201f57600080fd5b50565b6000813590506120318161200b565b92915050565b6000806040838503121561204e5761204d611f99565b5b600061205c85828601611fec565b925050602061206d85828601612022565b9150509250929050565b61208081612001565b82525050565b600060208201905061209b6000830184612077565b92915050565b60007fffffffff0000000000000000000000000000000000000000000000000000000082169050919050565b6120d6816120a1565b81146120e157600080fd5b50565b6000813590506120f3816120cd565b92915050565b60006020828403121561210f5761210e611f99565b5b600061211d848285016120e4565b91505092915050565b60008115159050919050565b61213b81612126565b82525050565b60006020820190506121566000830184612132565b92915050565b600080fd5b600080fd5b6000601f19601f8301169050919050565b7f4e487b7100000000000000000000000000000000000000000000000000000000600052604160045260246000fd5b6121af82612166565b810181811067ffffffffffffffff821117156121ce576121cd612177565b5b80604052505050565b60006121e1611f8f565b90506121ed82826121a6565b919050565b600067ffffffffffffffff82111561220d5761220c612177565b5b61221682612166565b9050602081019050919050565b82818337600083830152505050565b6000612245612240846121f2565b6121d7565b90508281526020810184848401111561226157612260612161565b5b61226c848285612223565b509392505050565b600082601f8301126122895761228861215c565b5b8135612299848260208601612232565b91505092915050565b6000602082840312156122b8576122b7611f99565b5b600082013567ffffffffffffffff8111156122d6576122d5611f9e565b5b6122e284828501612274565b91505092915050565b60006020828403121561230157612300611f99565b5b600061230f84828501612022565b91505092915050565b600081519050919050565b600082825260208201905092915050565b60005b83811015612352578082015181840152602081019050612337565b83811115612361576000848401525b50505050565b600061237282612318565b61237c8185612323565b935061238c818560208601612334565b61239581612166565b840191505092915050565b600060208201905081810360008301526123ba8184612367565b905092915050565b600067ffffffffffffffff8211156123dd576123dc612177565b5b602082029050602081019050919050565b600080fd5b6000612406612401846123c2565b6121d7565b90508083825260208201905060208402830185811115612429576124286123ee565b5b835b81811015612452578061243e8882612022565b84526020840193505060208101905061242b565b5050509392505050565b600082601f8301126124715761247061215c565b5b81356124818482602086016123f3565b91505092915050565b600067ffffffffffffffff8211156124a5576124a4612177565b5b6124ae82612166565b9050602081019050919050565b60006124ce6124c98461248a565b6121d7565b9050828152602081018484840111156124ea576124e9612161565b5b6124f5848285612223565b509392505050565b600082601f8301126125125761251161215c565b5b81356125228482602086016124bb565b91505092915050565b6000806000806080858703121561254557612544611f99565b5b600061255387828801611fec565b945050602085013567ffffffffffffffff81111561257457612573611f9e565b5b6125808782880161245c565b935050604085013567ffffffffffffffff8111156125a1576125a0611f9e565b5b6125ad8782880161245c565b925050606085013567ffffffffffffffff8111156125ce576125cd611f9e565b5b6125da878288016124fd565b91505092959194509250565b600080600080600060a0868803121561260257612601611f99565b5b600061261088828901611fec565b955050602061262188828901611fec565b945050604086013567ffffffffffffffff81111561264257612641611f9e565b5b61264e8882890161245c565b935050606086013567ffffffffffffffff81111561266f5761266e611f9e565b5b61267b8882890161245c565b925050608086013567ffffffffffffffff81111561269c5761269b611f9e565b5b6126a8888289016124fd565b9150509295509295909350565b600067ffffffffffffffff8211156126d0576126cf612177565b5b602082029050602081019050919050565b60006126f46126ef846126b5565b6121d7565b90508083825260208201905060208402830185811115612717576127166123ee565b5b835b81811015612740578061272c8882611fec565b845260208401935050602081019050612719565b5050509392505050565b600082601f83011261275f5761275e61215c565b5b813561276f8482602086016126e1565b91505092915050565b6000806040838503121561278f5761278e611f99565b5b600083013567ffffffffffffffff8111156127ad576127ac611f9e565b5b6127b98582860161274a565b925050602083013567ffffffffffffffff8111156127da576127d9611f9e565b5b6127e68582860161245c565b9150509250929050565b600081519050919050565b600082825260208201905092915050565b6000819050602082019050919050565b61282581612001565b82525050565b6000612837838361281c565b60208301905092915050565b6000602082019050919050565b600061285b826127f0565b61286581856127fb565b93506128708361280c565b8060005b838110156128a1578151612888888261282b565b975061289383612843565b925050600181019050612874565b5085935050505092915050565b600060208201905081810360008301526128c88184612850565b905092915050565b6128d981611fc3565b82525050565b60006020820190506128f460008301846128d0565b92915050565b61290381612126565b811461290e57600080fd5b50565b600081359050612920816128fa565b92915050565b6000806040838503121561293d5761293c611f99565b5b600061294b85828601611fec565b925050602061295c85828601612911565b9150509250929050565b6000806040838503121561297d5761297c611f99565b5b600061298b85828601611fec565b925050602061299c85828601611fec565b9150509250929050565b600080600080600060a086880312156129c2576129c1611f99565b5b60006129d088828901611fec565b95505060206129e188828901611fec565b94505060406129f288828901612022565b9350506060612a0388828901612022565b925050608086013567ffffffffffffffff811115612a2457612a23611f9e565b5b612a30888289016124fd565b9150509295509295909350565b600060208284031215612a5357612a52611f99565b5b6000612a6184828501611fec565b91505092915050565b7f455243313135353a2061646472657373207a65726f206973206e6f742061207660008201527f616c6964206f776e657200000000000000000000000000000000000000000000602082015250565b6000612ac6602a83612323565b9150612ad182612a6a565b604082019050919050565b60006020820190508181036000830152612af581612ab9565b9050919050565b7f5552492072657175657374656420666f7220696e76616c696420746f6b656e4960008201527f6400000000000000000000000000000000000000000000000000000000000000602082015250565b6000612b58602183612323565b9150612b6382612afc565b604082019050919050565b60006020820190508181036000830152612b8781612b4b565b9050919050565b7f4e487b7100000000000000000000000000000000000000000000000000000000600052602260045260246000fd5b60006002820490506001821680612bd557607f821691505b60208210811415612be957612be8612b8e565b5b50919050565b600081905092915050565b60008190508160005260206000209050919050565b60008154612c1c81612bbd565b612c268186612bef565b94506001821660008114612c415760018114612c5257612c85565b60ff19831686528186019350612c85565b612c5b85612bfa565b60005b83811015612c7d57815481890152600182019150602081019050612c5e565b838801955050505b50505092915050565b6000612c9982612318565b612ca38185612bef565b9350612cb3818560208601612334565b80840191505092915050565b6000612ccb8285612c0f565b9150612cd78284612c8e565b91508190509392505050565b7f455243313135353a2063616c6c6572206973206e6f7420746f6b656e206f776e60008201527f6572206e6f7220617070726f7665640000000000000000000000000000000000602082015250565b6000612d3f602f83612323565b9150612d4a82612ce3565b604082019050919050565b60006020820190508181036000830152612d6e81612d32565b9050919050565b7f455243313135353a206163636f756e747320616e6420696473206c656e67746860008201527f206d69736d617463680000000000000000000000000000000000000000000000602082015250565b6000612dd1602983612323565b9150612ddc82612d75565b604082019050919050565b60006020820190508181036000830152612e0081612dc4565b9050919050565b7f4e487b7100000000000000000000000000000000000000000000000000000000600052603260045260246000fd5b7f4e487b7100000000000000000000000000000000000000000000000000000000600052601160045260246000fd5b6000612e7082612001565b91507fffffffffffffffffffffffffffffffffffffffffffffffffffffffffffffffff821415612ea357612ea2612e36565b5b600182019050919050565b7f4f776e61626c653a206e6577206f776e657220697320746865207a65726f206160008201527f6464726573730000000000000000000000000000000000000000000000000000602082015250565b6000612f0a602683612323565b9150612f1582612eae565b604082019050919050565b60006020820190508181036000830152612f3981612efd565b9050919050565b7f4f776e61626c653a2063616c6c6572206973206e6f7420746865206f776e6572600082015250565b6000612f76602083612323565b9150612f8182612f40565b602082019050919050565b60006020820190508181036000830152612fa581612f69565b9050919050565b7f4e487b7100000000000000000000000000000000000000000000000000000000600052601260045260246000fd5b6000612fe682612001565b9150612ff183612001565b92508261300157613000612fac565b5b828204905092915050565b600061301782612001565b915061302283612001565b92508282101561303557613034612e36565b5b828203905092915050565b600061304b82612001565b915061305683612001565b92508261306657613065612fac565b5b828206905092915050565b600061307c82612001565b915061308783612001565b9250827fffffffffffffffffffffffffffffffffffffffffffffffffffffffffffffffff038211156130bc576130bb612e36565b5b828201905092915050565b7f455243313135353a206d696e7420746f20746865207a65726f2061646472657360008201527f7300000000000000000000000000000000000000000000000000000000000000602082015250565b6000613123602183612323565b915061312e826130c7565b604082019050919050565b6000602082019050818103600083015261315281613116565b9050919050565b7f455243313135353a2069647320616e6420616d6f756e7473206c656e6774682060008201527f6d69736d61746368000000000000000000000000000000000000000000000000602082015250565b60006131b5602883612323565b91506131c082613159565b604082019050919050565b600060208201905081810360008301526131e4816131a8565b9050919050565b600060408201905081810360008301526132058185612850565b905081810360208301526132198184612850565b90509392505050565b7f455243313135353a207472616e7366657220746f20746865207a65726f20616460008201527f6472657373000000000000000000000000000000000000000000000000000000602082015250565b600061327e602583612323565b915061328982613222565b604082019050919050565b600060208201905081810360008301526132ad81613271565b9050919050565b7f455243313135353a20696e73756666696369656e742062616c616e636520666f60008201527f72207472616e7366657200000000000000000000000000000000000000000000602082015250565b6000613310602a83612323565b915061331b826132b4565b604082019050919050565b6000602082019050818103600083015261333f81613303565b9050919050565b600060408201905061335b6000830185612077565b6133686020830184612077565b9392505050565b7f455243313135353a2073657474696e6720617070726f76616c2073746174757360008201527f20666f722073656c660000000000000000000000000000000000000000000000602082015250565b60006133cb602983612323565b91506133d68261336f565b604082019050919050565b600060208201905081810360008301526133fa816133be565b9050919050565b600081519050919050565b600082825260208201905092915050565b600061342882613401565b613432818561340c565b9350613442818560208601612334565b61344b81612166565b840191505092915050565b600060a08201905061346b60008301886128d0565b61347860208301876128d0565b818103604083015261348a8186612850565b9050818103606083015261349e8185612850565b905081810360808301526134b2818461341d565b90509695505050505050565b6000815190506134cd816120cd565b92915050565b6000602082840312156134e9576134e8611f99565b5b60006134f7848285016134be565b91505092915050565b60008160e01c9050919050565b600060033d111561352c5760046000803e613529600051613500565b90505b90565b600060443d101561353f576135c2565b613547611f8f565b60043d036004823e80513d602482011167ffffffffffffffff8211171561356f5750506135c2565b808201805167ffffffffffffffff81111561358d57505050506135c2565b80602083010160043d0385018111156135aa5750505050506135c2565b6135b9826020018501866121a6565b82955050505050505b90565b7f455243313135353a207472616e7366657220746f206e6f6e204552433131353560008201527f526563656976657220696d706c656d656e746572000000000000000000000000602082015250565b6000613621603483612323565b915061362c826135c5565b604082019050919050565b6000602082019050818103600083015261365081613614565b9050919050565b7f455243313135353a204552433131353552656365697665722072656a6563746560008201527f6420746f6b656e73000000000000000000000000000000000000000000000000602082015250565b60006136b3602883612323565b91506136be82613657565b604082019050919050565b600060208201905081810360008301526136e2816136a6565b9050919050565b600060a0820190506136fe60008301886128d0565b61370b60208301876128d0565b6137186040830186612077565b6137256060830185612077565b8181036080830152613737818461341d565b90509695505050505050565b7f455243313135353a206275726e20616d6f756e74206578636565647320746f7460008201527f616c537570706c79000000000000000000000000000000000000000000000000602082015250565b600061379f602883612323565b91506137aa82613743565b604082019050919050565b600060208201905081810360008301526137ce81613792565b905091905056fea2646970667358221220baec87addf2be76aff1771e81f40dba85331cc36cc0c68785f603fd5ad27953c64736f6c63430008090033",
  "linkReferences": {},
  "deployedLinkReferences": {}
}