{
  "_format": "hh-sol-artifact-1",
  "contractName": "Framable",
  "sourceName": "src/backend/contracts/Framable.sol",
  "abi": [
    {
      "inputs": [],
      "stateMutability": "nonpayable",
      "type": "constructor"
    },
    {
      "anonymous": false,
      "inputs": [
        {
          "indexed": true,
          "internalType": "address",
          "name": "owner",
          "type": "address"
        },
        {
          "indexed": true,
          "internalType": "address",
          "name": "approved",
          "type": "address"
        },
        {
          "indexed": true,
          "internalType": "uint256",
          "name": "tokenId",
          "type": "uint256"
        }
      ],
      "name": "Approval",
      "type": "event"
    },
    {
      "anonymous": false,
      "inputs": [
        {
          "indexed": true,
          "internalType": "address",
          "name": "owner",
          "type": "address"
        },
        {
          "indexed": true,
          "internalType": "address",
          "name": "operator",
          "type": "address"
        },
        {
          "indexed": false,
          "internalType": "bool",
          "name": "approved",
          "type": "bool"
        }
      ],
      "name": "ApprovalForAll",
      "type": "event"
    },
    {
      "anonymous": false,
      "inputs": [
        {
          "indexed": true,
          "internalType": "address",
          "name": "from",
          "type": "address"
        },
        {
          "indexed": true,
          "internalType": "address",
          "name": "to",
          "type": "address"
        }
      ],
      "name": "OwnershipTransferRequested",
      "type": "event"
    },
    {
      "anonymous": false,
      "inputs": [
        {
          "indexed": true,
          "internalType": "address",
          "name": "from",
          "type": "address"
        },
        {
          "indexed": true,
          "internalType": "address",
          "name": "to",
          "type": "address"
        }
      ],
      "name": "OwnershipTransferred",
      "type": "event"
    },
    {
      "anonymous": false,
      "inputs": [
        {
          "indexed": true,
          "internalType": "address",
          "name": "from",
          "type": "address"
        },
        {
          "indexed": true,
          "internalType": "address",
          "name": "to",
          "type": "address"
        },
        {
          "indexed": true,
          "internalType": "uint256",
          "name": "tokenId",
          "type": "uint256"
        }
      ],
      "name": "Transfer",
      "type": "event"
    },
    {
      "inputs": [],
      "name": "acceptOwnership",
      "outputs": [],
      "stateMutability": "nonpayable",
      "type": "function"
    },
    {
      "inputs": [],
      "name": "alreadyRaffledTokenIds",
      "outputs": [
        {
          "internalType": "uint256",
          "name": "",
          "type": "uint256"
        }
      ],
      "stateMutability": "view",
      "type": "function"
    },
    {
      "inputs": [
        {
          "internalType": "address",
          "name": "to",
          "type": "address"
        },
        {
          "internalType": "uint256",
          "name": "tokenId",
          "type": "uint256"
        }
      ],
      "name": "approve",
      "outputs": [],
      "stateMutability": "nonpayable",
      "type": "function"
    },
    {
      "inputs": [
        {
          "internalType": "address",
          "name": "owner",
          "type": "address"
        }
      ],
      "name": "balanceOf",
      "outputs": [
        {
          "internalType": "uint256",
          "name": "",
          "type": "uint256"
        }
      ],
      "stateMutability": "view",
      "type": "function"
    },
    {
      "inputs": [],
      "name": "fee",
      "outputs": [
        {
          "internalType": "uint256",
          "name": "",
          "type": "uint256"
        }
      ],
      "stateMutability": "view",
      "type": "function"
    },
    {
      "inputs": [
        {
          "internalType": "uint256",
          "name": "tokenId",
          "type": "uint256"
        }
      ],
      "name": "getApproved",
      "outputs": [
        {
          "internalType": "address",
          "name": "",
          "type": "address"
        }
      ],
      "stateMutability": "view",
      "type": "function"
    },
    {
      "inputs": [
        {
          "internalType": "address",
          "name": "owner",
          "type": "address"
        },
        {
          "internalType": "address",
          "name": "operator",
          "type": "address"
        }
      ],
      "name": "isApprovedForAll",
      "outputs": [
        {
          "internalType": "bool",
          "name": "",
          "type": "bool"
        }
      ],
      "stateMutability": "view",
      "type": "function"
    },
    {
      "inputs": [],
      "name": "lastRequestId",
      "outputs": [
        {
          "internalType": "uint256",
          "name": "",
          "type": "uint256"
        }
      ],
      "stateMutability": "view",
      "type": "function"
    },
    {
      "inputs": [
        {
          "internalType": "string",
          "name": "uri",
          "type": "string"
        },
        {
          "internalType": "address",
          "name": "_contractAddress",
          "type": "address"
        },
        {
          "internalType": "uint256",
          "name": "_originalTokenId",
          "type": "uint256"
        }
      ],
      "name": "merge",
      "outputs": [],
      "stateMutability": "payable",
      "type": "function"
    },
    {
      "inputs": [
        {
          "internalType": "uint256",
          "name": "",
          "type": "uint256"
        }
      ],
      "name": "myNft",
      "outputs": [
        {
          "internalType": "address",
          "name": "contractAddress",
          "type": "address"
        },
        {
          "internalType": "uint256",
          "name": "tokenId",
          "type": "uint256"
        },
        {
          "internalType": "address",
          "name": "owner",
          "type": "address"
        },
        {
          "internalType": "bool",
          "name": "isFramed",
          "type": "bool"
        }
      ],
      "stateMutability": "view",
      "type": "function"
    },
    {
      "inputs": [],
      "name": "name",
      "outputs": [
        {
          "internalType": "string",
          "name": "",
          "type": "string"
        }
      ],
      "stateMutability": "view",
      "type": "function"
    },
    {
      "inputs": [],
      "name": "owner",
      "outputs": [
        {
          "internalType": "address",
          "name": "",
          "type": "address"
        }
      ],
      "stateMutability": "view",
      "type": "function"
    },
    {
      "inputs": [
        {
          "internalType": "uint256",
          "name": "tokenId",
          "type": "uint256"
        }
      ],
      "name": "ownerOf",
      "outputs": [
        {
          "internalType": "address",
          "name": "",
          "type": "address"
        }
      ],
      "stateMutability": "view",
      "type": "function"
    },
    {
      "inputs": [
        {
          "internalType": "uint256",
          "name": "_requestId",
          "type": "uint256"
        },
        {
          "internalType": "uint256[]",
          "name": "_randomWords",
          "type": "uint256[]"
        }
      ],
      "name": "rawFulfillRandomWords",
      "outputs": [],
      "stateMutability": "nonpayable",
      "type": "function"
    },
    {
      "inputs": [
        {
          "internalType": "uint256",
          "name": "",
          "type": "uint256"
        }
      ],
      "name": "requestIds",
      "outputs": [
        {
          "internalType": "uint256",
          "name": "",
          "type": "uint256"
        }
      ],
      "stateMutability": "view",
      "type": "function"
    },
    {
      "inputs": [],
      "name": "requestRandomWords",
      "outputs": [
        {
          "internalType": "uint256",
          "name": "requestId",
          "type": "uint256"
        }
      ],
      "stateMutability": "nonpayable",
      "type": "function"
    },
    {
      "inputs": [
        {
          "internalType": "uint256",
          "name": "",
          "type": "uint256"
        }
      ],
      "name": "s_requests",
      "outputs": [
        {
          "internalType": "uint256",
          "name": "paid",
          "type": "uint256"
        },
        {
          "internalType": "bool",
          "name": "fulfilled",
          "type": "bool"
        }
      ],
      "stateMutability": "view",
      "type": "function"
    },
    {
      "inputs": [
        {
          "internalType": "address",
          "name": "from",
          "type": "address"
        },
        {
          "internalType": "address",
          "name": "to",
          "type": "address"
        },
        {
          "internalType": "uint256",
          "name": "tokenId",
          "type": "uint256"
        }
      ],
      "name": "safeTransferFrom",
      "outputs": [],
      "stateMutability": "nonpayable",
      "type": "function"
    },
    {
      "inputs": [
        {
          "internalType": "address",
          "name": "from",
          "type": "address"
        },
        {
          "internalType": "address",
          "name": "to",
          "type": "address"
        },
        {
          "internalType": "uint256",
          "name": "tokenId",
          "type": "uint256"
        },
        {
          "internalType": "bytes",
          "name": "data",
          "type": "bytes"
        }
      ],
      "name": "safeTransferFrom",
      "outputs": [],
      "stateMutability": "nonpayable",
      "type": "function"
    },
    {
      "inputs": [],
      "name": "selectWinner",
      "outputs": [
        {
          "internalType": "address",
          "name": "",
          "type": "address"
        }
      ],
      "stateMutability": "nonpayable",
      "type": "function"
    },
    {
      "inputs": [
        {
          "internalType": "address",
          "name": "operator",
          "type": "address"
        },
        {
          "internalType": "bool",
          "name": "approved",
          "type": "bool"
        }
      ],
      "name": "setApprovalForAll",
      "outputs": [],
      "stateMutability": "nonpayable",
      "type": "function"
    },
    {
      "inputs": [
        {
          "internalType": "bytes4",
          "name": "interfaceId",
          "type": "bytes4"
        }
      ],
      "name": "supportsInterface",
      "outputs": [
        {
          "internalType": "bool",
          "name": "",
          "type": "bool"
        }
      ],
      "stateMutability": "view",
      "type": "function"
    },
    {
      "inputs": [],
      "name": "symbol",
      "outputs": [
        {
          "internalType": "string",
          "name": "",
          "type": "string"
        }
      ],
      "stateMutability": "view",
      "type": "function"
    },
    {
      "inputs": [],
      "name": "threshold",
      "outputs": [
        {
          "internalType": "uint256",
          "name": "",
          "type": "uint256"
        }
      ],
      "stateMutability": "view",
      "type": "function"
    },
    {
      "inputs": [
        {
          "internalType": "uint256",
          "name": "tokenId",
          "type": "uint256"
        }
      ],
      "name": "tokenURI",
      "outputs": [
        {
          "internalType": "string",
          "name": "",
          "type": "string"
        }
      ],
      "stateMutability": "view",
      "type": "function"
    },
    {
      "inputs": [
        {
          "internalType": "address",
          "name": "from",
          "type": "address"
        },
        {
          "internalType": "address",
          "name": "to",
          "type": "address"
        },
        {
          "internalType": "uint256",
          "name": "tokenId",
          "type": "uint256"
        }
      ],
      "name": "transferFrom",
      "outputs": [],
      "stateMutability": "nonpayable",
      "type": "function"
    },
    {
      "inputs": [
        {
          "internalType": "address",
          "name": "to",
          "type": "address"
        }
      ],
      "name": "transferOwnership",
      "outputs": [],
      "stateMutability": "nonpayable",
      "type": "function"
    },
    {
      "inputs": [
        {
          "internalType": "uint256",
          "name": "_tokenId",
          "type": "uint256"
        }
      ],
      "name": "unmerge",
      "outputs": [],
      "stateMutability": "nonpayable",
      "type": "function"
    },
    {
      "inputs": [],
      "name": "withdrawLink",
      "outputs": [],
      "stateMutability": "nonpayable",
      "type": "function"
    },
    {
      "stateMutability": "payable",
      "type": "receive"
    }
  ],
  "bytecode": "0x60c060405266038d7ea4c68000600a55670de0b6b3a7640000600b55620186a0601060006101000a81548163ffffffff021916908363ffffffff1602179055506003601060046101000a81548161ffff021916908361ffff1602179055506001601060066101000a81548163ffffffff021916908363ffffffff16021790555073326c977e6efc84e512bb9c30f76e30c160ed06fb6010600a6101000a81548173ffffffffffffffffffffffffffffffffffffffff021916908373ffffffffffffffffffffffffffffffffffffffff1602179055507399afaf084eba697e584501b8ed2c0b37dd136693601160006101000a81548173ffffffffffffffffffffffffffffffffffffffff021916908373ffffffffffffffffffffffffffffffffffffffff1602179055503480156200013657600080fd5b50338060006010600a9054906101000a900473ffffffffffffffffffffffffffffffffffffffff16601160009054906101000a900473ffffffffffffffffffffffffffffffffffffffff166040518060400160405280600981526020017f4d65726765644e465400000000000000000000000000000000000000000000008152506040518060400160405280600481526020017f4d4e465400000000000000000000000000000000000000000000000000000000815250816000908051906020019062000205929190620004c1565b5080600190805190602001906200021e929190620004c1565b5050508173ffffffffffffffffffffffffffffffffffffffff1660808173ffffffffffffffffffffffffffffffffffffffff16815250508073ffffffffffffffffffffffffffffffffffffffff1660a08173ffffffffffffffffffffffffffffffffffffffff16815250505050600073ffffffffffffffffffffffffffffffffffffffff168273ffffffffffffffffffffffffffffffffffffffff161415620002fe576040517f08c379a0000000000000000000000000000000000000000000000000000000008152600401620002f590620005d2565b60405180910390fd5b81600760006101000a81548173ffffffffffffffffffffffffffffffffffffffff021916908373ffffffffffffffffffffffffffffffffffffffff160217905550600073ffffffffffffffffffffffffffffffffffffffff168173ffffffffffffffffffffffffffffffffffffffff1614620003865762000385816200038f60201b60201c565b5b505050620006cb565b3373ffffffffffffffffffffffffffffffffffffffff168173ffffffffffffffffffffffffffffffffffffffff16141562000401576040517f08c379a0000000000000000000000000000000000000000000000000000000008152600401620003f89062000644565b60405180910390fd5b80600860006101000a81548173ffffffffffffffffffffffffffffffffffffffff021916908373ffffffffffffffffffffffffffffffffffffffff1602179055508073ffffffffffffffffffffffffffffffffffffffff16600760009054906101000a900473ffffffffffffffffffffffffffffffffffffffff1673ffffffffffffffffffffffffffffffffffffffff167fed8889f560326eb138920d842192f0eb3dd22b4f139c87a2c57538e05bae127860405160405180910390a350565b828054620004cf9062000695565b90600052602060002090601f016020900481019282620004f357600085556200053f565b82601f106200050e57805160ff19168380011785556200053f565b828001600101855582156200053f579182015b828111156200053e57825182559160200191906001019062000521565b5b5090506200054e919062000552565b5090565b5b808211156200056d57600081600090555060010162000553565b5090565b600082825260208201905092915050565b7f43616e6e6f7420736574206f776e657220746f207a65726f0000000000000000600082015250565b6000620005ba60188362000571565b9150620005c78262000582565b602082019050919050565b60006020820190508181036000830152620005ed81620005ab565b9050919050565b7f43616e6e6f74207472616e7366657220746f2073656c66000000000000000000600082015250565b60006200062c60178362000571565b91506200063982620005f4565b602082019050919050565b600060208201905081810360008301526200065f816200061d565b9050919050565b7f4e487b7100000000000000000000000000000000000000000000000000000000600052602260045260246000fd5b60006002820490506001821680620006ae57607f821691505b60208210811415620006c557620006c462000666565b5b50919050565b60805160a051614d5c62000714600039600081816109e401528181610b3101528181611944015281816127190152818161273a0152612878015260006126dd0152614d5c6000f3fe6080604052600436106101c65760003560e01c80638796ba8c116100f7578063b88d4fde11610095578063e0c8628911610064578063e0c8628914610654578063e985e9c51461067f578063f2fde38b146106bc578063fc2a88c3146106e5576101cd565b8063b88d4fde1461059a578063c87b56dd146105c3578063ce26349014610600578063ddca3f4314610629576101cd565b806395d89b41116100d157806395d89b41146104dd578063a168fa8914610508578063a22cb46514610546578063b14be4931461056f576101cd565b80638796ba8c1461045e5780638da5cb5b1461049b5780638dc654a2146104c6576101cd565b806342842e0e116101645780636352211e1161013e5780636352211e146103b15780636f80225f146103ee57806370a082311461040a57806379ba509714610447576101cd565b806342842e0e1461031d57806342cde4e8146103465780634513d61a14610371576101cd565b8063095ea7b3116101a0578063095ea7b3146102775780631fe543e3146102a057806323b872dd146102c957806333a99e04146102f2576101cd565b806301ffc9a7146101d257806306fdde031461020f578063081812fc1461023a576101cd565b366101cd57005b600080fd5b3480156101de57600080fd5b506101f960048036038101906101f491906135d3565b610710565b604051610206919061361b565b60405180910390f35b34801561021b57600080fd5b506102246107f2565b60405161023191906136cf565b60405180910390f35b34801561024657600080fd5b50610261600480360381019061025c9190613727565b610884565b60405161026e9190613795565b60405180910390f35b34801561028357600080fd5b5061029e600480360381019061029991906137dc565b6108ca565b005b3480156102ac57600080fd5b506102c760048036038101906102c29190613964565b6109e2565b005b3480156102d557600080fd5b506102f060048036038101906102eb91906139c0565b610a7e565b005b3480156102fe57600080fd5b50610307610ade565b6040516103149190613795565b60405180910390f35b34801561032957600080fd5b50610344600480360381019061033f91906139c0565b610d2d565b005b34801561035257600080fd5b5061035b610d4d565b6040516103689190613a22565b60405180910390f35b34801561037d57600080fd5b5061039860048036038101906103939190613727565b610d53565b6040516103a89493929190613a3d565b60405180910390f35b3480156103bd57600080fd5b506103d860048036038101906103d39190613727565b610dd0565b6040516103e59190613795565b60405180910390f35b61040860048036038101906104039190613b37565b610e57565b005b34801561041657600080fd5b50610431600480360381019061042c9190613ba6565b61110f565b60405161043e9190613a22565b60405180910390f35b34801561045357600080fd5b5061045c6111c7565b005b34801561046a57600080fd5b5061048560048036038101906104809190613727565b61135e565b6040516104929190613a22565b60405180910390f35b3480156104a757600080fd5b506104b0611382565b6040516104bd9190613795565b60405180910390f35b3480156104d257600080fd5b506104db6113ac565b005b3480156104e957600080fd5b506104f2611532565b6040516104ff91906136cf565b60405180910390f35b34801561051457600080fd5b5061052f600480360381019061052a9190613727565b6115c4565b60405161053d929190613bd3565b60405180910390f35b34801561055257600080fd5b5061056d60048036038101906105689190613c28565b6115f5565b005b34801561057b57600080fd5b5061058461160b565b6040516105919190613a22565b60405180910390f35b3480156105a657600080fd5b506105c160048036038101906105bc9190613d09565b611611565b005b3480156105cf57600080fd5b506105ea60048036038101906105e59190613727565b611673565b6040516105f791906136cf565b60405180910390f35b34801561060c57600080fd5b5061062760048036038101906106229190613727565b611685565b005b34801561063557600080fd5b5061063e6118e6565b60405161064b9190613a22565b60405180910390f35b34801561066057600080fd5b506106696118ec565b6040516106769190613a22565b60405180910390f35b34801561068b57600080fd5b506106a660048036038101906106a19190613d8c565b611ae8565b6040516106b3919061361b565b60405180910390f35b3480156106c857600080fd5b506106e360048036038101906106de9190613ba6565b611b7c565b005b3480156106f157600080fd5b506106fa611b90565b6040516107079190613a22565b60405180910390f35b60007f80ac58cd000000000000000000000000000000000000000000000000000000007bffffffffffffffffffffffffffffffffffffffffffffffffffffffff1916827bffffffffffffffffffffffffffffffffffffffffffffffffffffffff191614806107db57507f5b5e139f000000000000000000000000000000000000000000000000000000007bffffffffffffffffffffffffffffffffffffffffffffffffffffffff1916827bffffffffffffffffffffffffffffffffffffffffffffffffffffffff1916145b806107eb57506107ea82611b96565b5b9050919050565b60606000805461080190613dfb565b80601f016020809104026020016040519081016040528092919081815260200182805461082d90613dfb565b801561087a5780601f1061084f5761010080835404028352916020019161087a565b820191906000526020600020905b81548152906001019060200180831161085d57829003601f168201915b5050505050905090565b600061088f82611c00565b6004600083815260200190815260200160002060009054906101000a900473ffffffffffffffffffffffffffffffffffffffff169050919050565b60006108d582610dd0565b90508073ffffffffffffffffffffffffffffffffffffffff168373ffffffffffffffffffffffffffffffffffffffff161415610946576040517f08c379a000000000000000000000000000000000000000000000000000000000815260040161093d90613e9f565b60405180910390fd5b8073ffffffffffffffffffffffffffffffffffffffff16610965611c4b565b73ffffffffffffffffffffffffffffffffffffffff16148061099457506109938161098e611c4b565b611ae8565b5b6109d3576040517f08c379a00000000000000000000000000000000000000000000000000000000081526004016109ca90613f31565b60405180910390fd5b6109dd8383611c53565b505050565b7f000000000000000000000000000000000000000000000000000000000000000073ffffffffffffffffffffffffffffffffffffffff163373ffffffffffffffffffffffffffffffffffffffff1614610a70576040517f08c379a0000000000000000000000000000000000000000000000000000000008152600401610a6790613f9d565b60405180910390fd5b610a7a8282611d0c565b5050565b610a8f610a89611c4b565b82611dc3565b610ace576040517f08c379a0000000000000000000000000000000000000000000000000000000008152600401610ac59061402f565b60405180910390fd5b610ad9838383611e58565b505050565b6000610ae8612152565b600b54471015610b2d576040517f08c379a0000000000000000000000000000000000000000000000000000000008152600401610b249061409b565b60405180910390fd5b60007f000000000000000000000000000000000000000000000000000000000000000073ffffffffffffffffffffffffffffffffffffffff1663fc2a88c36040518163ffffffff1660e01b815260040160206040518083038186803b158015610b9557600080fd5b505afa158015610ba9573d6000803e3d6000fd5b505050506040513d601f19601f82011682018060405250810190610bcd91906140d0565b90506000610bdb60096121e4565b90506000610be8836121f2565b925050506000600c5483610bfc919061412c565b82600081518110610c1057610c0f614160565b5b6020026020010151610c2291906141be565b905060006012600083600c54610c3891906141ef565b815260200190815260200160002060020160009054906101000a900473ffffffffffffffffffffffffffffffffffffffff16905083600c8190555060008173ffffffffffffffffffffffffffffffffffffffff16600b54604051610c9b90614276565b60006040518083038185875af1925050503d8060008114610cd8576040519150601f19603f3d011682016040523d82523d6000602084013e610cdd565b606091505b5050905080610d21576040517f08c379a0000000000000000000000000000000000000000000000000000000008152600401610d18906142d7565b60405180910390fd5b81965050505050505090565b610d4883838360405180602001604052806000815250611611565b505050565b600b5481565b60126020528060005260406000206000915090508060000160009054906101000a900473ffffffffffffffffffffffffffffffffffffffff16908060010154908060020160009054906101000a900473ffffffffffffffffffffffffffffffffffffffff16908060020160149054906101000a900460ff16905084565b600080610ddc8361230c565b9050600073ffffffffffffffffffffffffffffffffffffffff168173ffffffffffffffffffffffffffffffffffffffff161415610e4e576040517f08c379a0000000000000000000000000000000000000000000000000000000008152600401610e4590614343565b60405180910390fd5b80915050919050565b600a54341015610e9c576040517f08c379a0000000000000000000000000000000000000000000000000000000008152600401610e93906143af565b60405180910390fd5b600073ffffffffffffffffffffffffffffffffffffffff168273ffffffffffffffffffffffffffffffffffffffff1614158015610f0557503073ffffffffffffffffffffffffffffffffffffffff168273ffffffffffffffffffffffffffffffffffffffff1614155b610f44576040517f08c379a0000000000000000000000000000000000000000000000000000000008152600401610f3b9061441b565b60405180910390fd5b6000610f5060096121e4565b9050610f5c6009612349565b600060405180608001604052808573ffffffffffffffffffffffffffffffffffffffff1681526020018481526020013373ffffffffffffffffffffffffffffffffffffffff168152602001600115158152509050806012600084815260200190815260200160002060008201518160000160006101000a81548173ffffffffffffffffffffffffffffffffffffffff021916908373ffffffffffffffffffffffffffffffffffffffff1602179055506020820151816001015560408201518160020160006101000a81548173ffffffffffffffffffffffffffffffffffffffff021916908373ffffffffffffffffffffffffffffffffffffffff16021790555060608201518160020160146101000a81548160ff02191690831515021790555090505060008490508073ffffffffffffffffffffffffffffffffffffffff166323b872dd3330876040518463ffffffff1660e01b81526004016110c19392919061443b565b600060405180830381600087803b1580156110db57600080fd5b505af11580156110ef573d6000803e3d6000fd5b505050506110fd338461235f565b611107838761237d565b505050505050565b60008073ffffffffffffffffffffffffffffffffffffffff168273ffffffffffffffffffffffffffffffffffffffff161415611180576040517f08c379a0000000000000000000000000000000000000000000000000000000008152600401611177906144e4565b60405180910390fd5b600360008373ffffffffffffffffffffffffffffffffffffffff1673ffffffffffffffffffffffffffffffffffffffff168152602001908152602001600020549050919050565b600860009054906101000a900473ffffffffffffffffffffffffffffffffffffffff1673ffffffffffffffffffffffffffffffffffffffff163373ffffffffffffffffffffffffffffffffffffffff1614611257576040517f08c379a000000000000000000000000000000000000000000000000000000000815260040161124e90614550565b60405180910390fd5b6000600760009054906101000a900473ffffffffffffffffffffffffffffffffffffffff16905033600760006101000a81548173ffffffffffffffffffffffffffffffffffffffff021916908373ffffffffffffffffffffffffffffffffffffffff1602179055506000600860006101000a81548173ffffffffffffffffffffffffffffffffffffffff021916908373ffffffffffffffffffffffffffffffffffffffff1602179055503373ffffffffffffffffffffffffffffffffffffffff168173ffffffffffffffffffffffffffffffffffffffff167f8be0079c531659141344cd1fd0a4f28419497f9722a3daafe3b4186f6b6457e060405160405180910390a350565b600e818154811061136e57600080fd5b906000526020600020016000915090505481565b6000600760009054906101000a900473ffffffffffffffffffffffffffffffffffffffff16905090565b6113b4612152565b60006010600a9054906101000a900473ffffffffffffffffffffffffffffffffffffffff1690508073ffffffffffffffffffffffffffffffffffffffff1663a9059cbb338373ffffffffffffffffffffffffffffffffffffffff166370a08231306040518263ffffffff1660e01b81526004016114319190613795565b60206040518083038186803b15801561144957600080fd5b505afa15801561145d573d6000803e3d6000fd5b505050506040513d601f19601f8201168201806040525081019061148191906140d0565b6040518363ffffffff1660e01b815260040161149e929190614570565b602060405180830381600087803b1580156114b857600080fd5b505af11580156114cc573d6000803e3d6000fd5b505050506040513d601f19601f820116820180604052508101906114f091906145ae565b61152f576040517f08c379a000000000000000000000000000000000000000000000000000000000815260040161152690614627565b60405180910390fd5b50565b60606001805461154190613dfb565b80601f016020809104026020016040519081016040528092919081815260200182805461156d90613dfb565b80156115ba5780601f1061158f576101008083540402835291602001916115ba565b820191906000526020600020905b81548152906001019060200180831161159d57829003601f168201915b5050505050905090565b600d6020528060005260406000206000915090508060000154908060010160009054906101000a900460ff16905082565b611607611600611c4b565b83836123f1565b5050565b600c5481565b61162261161c611c4b565b83611dc3565b611661576040517f08c379a00000000000000000000000000000000000000000000000000000000081526004016116589061402f565b60405180910390fd5b61166d8484848461255e565b50505050565b606061167e826125ba565b9050919050565b61168e816126cd565b6000601260008381526020019081526020016000206040518060800160405290816000820160009054906101000a900473ffffffffffffffffffffffffffffffffffffffff1673ffffffffffffffffffffffffffffffffffffffff1673ffffffffffffffffffffffffffffffffffffffff168152602001600182015481526020016002820160009054906101000a900473ffffffffffffffffffffffffffffffffffffffff1673ffffffffffffffffffffffffffffffffffffffff1673ffffffffffffffffffffffffffffffffffffffff1681526020016002820160149054906101000a900460ff16151515158152505090506000816060019015159081151581525050600081600001519050816012600085815260200190815260200160002060008201518160000160006101000a81548173ffffffffffffffffffffffffffffffffffffffff021916908373ffffffffffffffffffffffffffffffffffffffff1602179055506020820151816001015560408201518160020160006101000a81548173ffffffffffffffffffffffffffffffffffffffff021916908373ffffffffffffffffffffffffffffffffffffffff16021790555060608201518160020160146101000a81548160ff0219169083151502179055509050508073ffffffffffffffffffffffffffffffffffffffff166323b872dd30846040015185602001516040518463ffffffff1660e01b81526004016118af9392919061443b565b600060405180830381600087803b1580156118c957600080fd5b505af11580156118dd573d6000803e3d6000fd5b50505050505050565b600a5481565b60006118f6612152565b611935601060009054906101000a900463ffffffff16601060049054906101000a900461ffff16601060069054906101000a900463ffffffff166126d9565b905060405180606001604052807f000000000000000000000000000000000000000000000000000000000000000073ffffffffffffffffffffffffffffffffffffffff16634306d354601060009054906101000a900463ffffffff166040518263ffffffff1660e01b81526004016119ad9190614666565b60206040518083038186803b1580156119c557600080fd5b505afa1580156119d9573d6000803e3d6000fd5b505050506040513d601f19601f820116820180604052508101906119fd91906140d0565b8152602001600015158152602001600067ffffffffffffffff811115611a2657611a25613821565b5b604051908082528060200260200182016040528015611a545781602001602082028036833780820191505090505b50815250600d60008381526020019081526020016000206000820151816000015560208201518160010160006101000a81548160ff0219169083151502179055506040820151816002019080519060200190611ab1929190613437565b50905050600e81908060018154018082558091505060019003906000526020600020016000909190919091505580600f8190555090565b6000600560008473ffffffffffffffffffffffffffffffffffffffff1673ffffffffffffffffffffffffffffffffffffffff16815260200190815260200160002060008373ffffffffffffffffffffffffffffffffffffffff1673ffffffffffffffffffffffffffffffffffffffff16815260200190815260200160002060009054906101000a900460ff16905092915050565b611b84612152565b611b8d8161291d565b50565b600f5481565b60007f01ffc9a7000000000000000000000000000000000000000000000000000000007bffffffffffffffffffffffffffffffffffffffffffffffffffffffff1916827bffffffffffffffffffffffffffffffffffffffffffffffffffffffff1916149050919050565b611c0981612a4c565b611c48576040517f08c379a0000000000000000000000000000000000000000000000000000000008152600401611c3f90614343565b60405180910390fd5b50565b600033905090565b816004600083815260200190815260200160002060006101000a81548173ffffffffffffffffffffffffffffffffffffffff021916908373ffffffffffffffffffffffffffffffffffffffff160217905550808273ffffffffffffffffffffffffffffffffffffffff16611cc683610dd0565b73ffffffffffffffffffffffffffffffffffffffff167f8c5be1e5ebec7d5bd14f71427d1e84f3dd0314c0f7b2291e5b200ac8c7c3b92560405160405180910390a45050565b6000600d60008481526020019081526020016000206000015411611d65576040517f08c379a0000000000000000000000000000000000000000000000000000000008152600401611d5c906146cd565b60405180910390fd5b6001600d600084815260200190815260200160002060010160006101000a81548160ff02191690831515021790555080600d60008481526020019081526020016000206002019080519060200190611dbe929190613437565b505050565b600080611dcf83610dd0565b90508073ffffffffffffffffffffffffffffffffffffffff168473ffffffffffffffffffffffffffffffffffffffff161480611e115750611e108185611ae8565b5b80611e4f57508373ffffffffffffffffffffffffffffffffffffffff16611e3784610884565b73ffffffffffffffffffffffffffffffffffffffff16145b91505092915050565b8273ffffffffffffffffffffffffffffffffffffffff16611e7882610dd0565b73ffffffffffffffffffffffffffffffffffffffff1614611ece576040517f08c379a0000000000000000000000000000000000000000000000000000000008152600401611ec59061475f565b60405180910390fd5b600073ffffffffffffffffffffffffffffffffffffffff168273ffffffffffffffffffffffffffffffffffffffff161415611f3e576040517f08c379a0000000000000000000000000000000000000000000000000000000008152600401611f35906147f1565b60405180910390fd5b611f4b8383836001612a8d565b8273ffffffffffffffffffffffffffffffffffffffff16611f6b82610dd0565b73ffffffffffffffffffffffffffffffffffffffff1614611fc1576040517f08c379a0000000000000000000000000000000000000000000000000000000008152600401611fb89061475f565b60405180910390fd5b6004600082815260200190815260200160002060006101000a81549073ffffffffffffffffffffffffffffffffffffffff02191690556001600360008573ffffffffffffffffffffffffffffffffffffffff1673ffffffffffffffffffffffffffffffffffffffff168152602001908152602001600020600082825403925050819055506001600360008473ffffffffffffffffffffffffffffffffffffffff1673ffffffffffffffffffffffffffffffffffffffff16815260200190815260200160002060008282540192505081905550816002600083815260200190815260200160002060006101000a81548173ffffffffffffffffffffffffffffffffffffffff021916908373ffffffffffffffffffffffffffffffffffffffff160217905550808273ffffffffffffffffffffffffffffffffffffffff168473ffffffffffffffffffffffffffffffffffffffff167fddf252ad1be2c89b69c2b068fc378daa952ba7f163c4a11628f55a4df523b3ef60405160405180910390a461214d8383836001612bb3565b505050565b600760009054906101000a900473ffffffffffffffffffffffffffffffffffffffff1673ffffffffffffffffffffffffffffffffffffffff163373ffffffffffffffffffffffffffffffffffffffff16146121e2576040517f08c379a00000000000000000000000000000000000000000000000000000000081526004016121d99061485d565b60405180910390fd5b565b600081600001549050919050565b60008060606000600d60008681526020019081526020016000206000015411612250576040517f08c379a0000000000000000000000000000000000000000000000000000000008152600401612247906146cd565b60405180910390fd5b6000600d6000868152602001908152602001600020604051806060016040529081600082015481526020016001820160009054906101000a900460ff16151515158152602001600282018054806020026020016040519081016040528092919081815260200182805480156122e457602002820191906000526020600020905b8154815260200190600101908083116122d0575b5050505050815250509050806000015181602001518260400151935093509350509193909250565b60006002600083815260200190815260200160002060009054906101000a900473ffffffffffffffffffffffffffffffffffffffff169050919050565b6001816000016000828254019250508190555050565b612379828260405180602001604052806000815250612bb9565b5050565b61238682612a4c565b6123c5576040517f08c379a00000000000000000000000000000000000000000000000000000000081526004016123bc906148ef565b60405180910390fd5b806006600084815260200190815260200160002090805190602001906123ec929190613484565b505050565b8173ffffffffffffffffffffffffffffffffffffffff168373ffffffffffffffffffffffffffffffffffffffff161415612460576040517f08c379a00000000000000000000000000000000000000000000000000000000081526004016124579061495b565b60405180910390fd5b80600560008573ffffffffffffffffffffffffffffffffffffffff1673ffffffffffffffffffffffffffffffffffffffff16815260200190815260200160002060008473ffffffffffffffffffffffffffffffffffffffff1673ffffffffffffffffffffffffffffffffffffffff16815260200190815260200160002060006101000a81548160ff0219169083151502179055508173ffffffffffffffffffffffffffffffffffffffff168373ffffffffffffffffffffffffffffffffffffffff167f17307eab39ab6107e8899845ad3d59bd9653f200f220920489ca2b5937696c3183604051612551919061361b565b60405180910390a3505050565b612569848484611e58565b61257584848484612c14565b6125b4576040517f08c379a00000000000000000000000000000000000000000000000000000000081526004016125ab906149ed565b60405180910390fd5b50505050565b60606125c582611c00565b60006006600084815260200190815260200160002080546125e590613dfb565b80601f016020809104026020016040519081016040528092919081815260200182805461261190613dfb565b801561265e5780601f106126335761010080835404028352916020019161265e565b820191906000526020600020905b81548152906001019060200180831161264157829003601f168201915b50505050509050600061266f612dab565b90506000815114156126855781925050506126c8565b6000825111156126ba5780826040516020016126a2929190614a49565b604051602081830303815290604052925050506126c8565b6126c384612dc2565b925050505b919050565b6126d681612e2a565b50565b60007f000000000000000000000000000000000000000000000000000000000000000073ffffffffffffffffffffffffffffffffffffffff16634000aea07f00000000000000000000000000000000000000000000000000000000000000007f000000000000000000000000000000000000000000000000000000000000000073ffffffffffffffffffffffffffffffffffffffff16634306d354886040518263ffffffff1660e01b81526004016127919190614666565b60206040518083038186803b1580156127a957600080fd5b505afa1580156127bd573d6000803e3d6000fd5b505050506040513d601f19601f820116820180604052508101906127e191906140d0565b8787876040516020016127f693929190614a8a565b6040516020818303038152906040526040518463ffffffff1660e01b815260040161282393929190614b16565b602060405180830381600087803b15801561283d57600080fd5b505af1158015612851573d6000803e3d6000fd5b505050506040513d601f19601f8201168201806040525081019061287591906145ae565b507f000000000000000000000000000000000000000000000000000000000000000073ffffffffffffffffffffffffffffffffffffffff1663fc2a88c36040518163ffffffff1660e01b815260040160206040518083038186803b1580156128dc57600080fd5b505afa1580156128f0573d6000803e3d6000fd5b505050506040513d601f19601f8201168201806040525081019061291491906140d0565b90509392505050565b3373ffffffffffffffffffffffffffffffffffffffff168173ffffffffffffffffffffffffffffffffffffffff16141561298c576040517f08c379a000000000000000000000000000000000000000000000000000000000815260040161298390614ba0565b60405180910390fd5b80600860006101000a81548173ffffffffffffffffffffffffffffffffffffffff021916908373ffffffffffffffffffffffffffffffffffffffff1602179055508073ffffffffffffffffffffffffffffffffffffffff16600760009054906101000a900473ffffffffffffffffffffffffffffffffffffffff1673ffffffffffffffffffffffffffffffffffffffff167fed8889f560326eb138920d842192f0eb3dd22b4f139c87a2c57538e05bae127860405160405180910390a350565b60008073ffffffffffffffffffffffffffffffffffffffff16612a6e8361230c565b73ffffffffffffffffffffffffffffffffffffffff1614159050919050565b6001811115612bad57600073ffffffffffffffffffffffffffffffffffffffff168473ffffffffffffffffffffffffffffffffffffffff1614612b215780600360008673ffffffffffffffffffffffffffffffffffffffff1673ffffffffffffffffffffffffffffffffffffffff1681526020019081526020016000206000828254612b19919061412c565b925050819055505b600073ffffffffffffffffffffffffffffffffffffffff168373ffffffffffffffffffffffffffffffffffffffff1614612bac5780600360008573ffffffffffffffffffffffffffffffffffffffff1673ffffffffffffffffffffffffffffffffffffffff1681526020019081526020016000206000828254612ba491906141ef565b925050819055505b5b50505050565b50505050565b612bc38383612e7d565b612bd06000848484612c14565b612c0f576040517f08c379a0000000000000000000000000000000000000000000000000000000008152600401612c06906149ed565b60405180910390fd5b505050565b6000612c358473ffffffffffffffffffffffffffffffffffffffff1661309b565b15612d9e578373ffffffffffffffffffffffffffffffffffffffff1663150b7a02612c5e611c4b565b8786866040518563ffffffff1660e01b8152600401612c809493929190614bc0565b602060405180830381600087803b158015612c9a57600080fd5b505af1925050508015612ccb57506040513d601f19601f82011682018060405250810190612cc89190614c21565b60015b612d4e573d8060008114612cfb576040519150601f19603f3d011682016040523d82523d6000602084013e612d00565b606091505b50600081511415612d46576040517f08c379a0000000000000000000000000000000000000000000000000000000008152600401612d3d906149ed565b60405180910390fd5b805181602001fd5b63150b7a0260e01b7bffffffffffffffffffffffffffffffffffffffffffffffffffffffff1916817bffffffffffffffffffffffffffffffffffffffffffffffffffffffff191614915050612da3565b600190505b949350505050565b606060405180602001604052806000815250905090565b6060612dcd82611c00565b6000612dd7612dab565b90506000815111612df75760405180602001604052806000815250612e22565b80612e01846130be565b604051602001612e12929190614a49565b6040516020818303038152906040525b915050919050565b612e3381613196565b6000600660008381526020019081526020016000208054612e5390613dfb565b905014612e7a57600660008281526020019081526020016000206000612e79919061350a565b5b50565b600073ffffffffffffffffffffffffffffffffffffffff168273ffffffffffffffffffffffffffffffffffffffff161415612eed576040517f08c379a0000000000000000000000000000000000000000000000000000000008152600401612ee490614c9a565b60405180910390fd5b612ef681612a4c565b15612f36576040517f08c379a0000000000000000000000000000000000000000000000000000000008152600401612f2d90614d06565b60405180910390fd5b612f44600083836001612a8d565b612f4d81612a4c565b15612f8d576040517f08c379a0000000000000000000000000000000000000000000000000000000008152600401612f8490614d06565b60405180910390fd5b6001600360008473ffffffffffffffffffffffffffffffffffffffff1673ffffffffffffffffffffffffffffffffffffffff16815260200190815260200160002060008282540192505081905550816002600083815260200190815260200160002060006101000a81548173ffffffffffffffffffffffffffffffffffffffff021916908373ffffffffffffffffffffffffffffffffffffffff160217905550808273ffffffffffffffffffffffffffffffffffffffff16600073ffffffffffffffffffffffffffffffffffffffff167fddf252ad1be2c89b69c2b068fc378daa952ba7f163c4a11628f55a4df523b3ef60405160405180910390a4613097600083836001612bb3565b5050565b6000808273ffffffffffffffffffffffffffffffffffffffff163b119050919050565b6060600060016130cd846132e4565b01905060008167ffffffffffffffff8111156130ec576130eb613821565b5b6040519080825280601f01601f19166020018201604052801561311e5781602001600182028036833780820191505090505b509050600082602001820190505b60011561318b578080600190039150507f3031323334353637383961626364656600000000000000000000000000000000600a86061a8153600a85816131755761317461418f565b5b04945060008514156131865761318b565b61312c565b819350505050919050565b60006131a182610dd0565b90506131b1816000846001612a8d565b6131ba82610dd0565b90506004600083815260200190815260200160002060006101000a81549073ffffffffffffffffffffffffffffffffffffffff02191690556001600360008373ffffffffffffffffffffffffffffffffffffffff1673ffffffffffffffffffffffffffffffffffffffff168152602001908152602001600020600082825403925050819055506002600083815260200190815260200160002060006101000a81549073ffffffffffffffffffffffffffffffffffffffff021916905581600073ffffffffffffffffffffffffffffffffffffffff168273ffffffffffffffffffffffffffffffffffffffff167fddf252ad1be2c89b69c2b068fc378daa952ba7f163c4a11628f55a4df523b3ef60405160405180910390a46132e0816000846001612bb3565b5050565b600080600090507a184f03e93ff9f4daa797ed6e38ed64bf6a1f0100000000000000008310613342577a184f03e93ff9f4daa797ed6e38ed64bf6a1f01000000000000000083816133385761333761418f565b5b0492506040810190505b6d04ee2d6d415b85acef8100000000831061337f576d04ee2d6d415b85acef810000000083816133755761337461418f565b5b0492506020810190505b662386f26fc1000083106133ae57662386f26fc1000083816133a4576133a361418f565b5b0492506010810190505b6305f5e10083106133d7576305f5e10083816133cd576133cc61418f565b5b0492506008810190505b61271083106133fc5761271083816133f2576133f161418f565b5b0492506004810190505b6064831061341f57606483816134155761341461418f565b5b0492506002810190505b600a831061342e576001810190505b80915050919050565b828054828255906000526020600020908101928215613473579160200282015b82811115613472578251825591602001919060010190613457565b5b509050613480919061354a565b5090565b82805461349090613dfb565b90600052602060002090601f0160209004810192826134b257600085556134f9565b82601f106134cb57805160ff19168380011785556134f9565b828001600101855582156134f9579182015b828111156134f85782518255916020019190600101906134dd565b5b509050613506919061354a565b5090565b50805461351690613dfb565b6000825580601f106135285750613547565b601f016020900490600052602060002090810190613546919061354a565b5b50565b5b8082111561356357600081600090555060010161354b565b5090565b6000604051905090565b600080fd5b600080fd5b60007fffffffff0000000000000000000000000000000000000000000000000000000082169050919050565b6135b08161357b565b81146135bb57600080fd5b50565b6000813590506135cd816135a7565b92915050565b6000602082840312156135e9576135e8613571565b5b60006135f7848285016135be565b91505092915050565b60008115159050919050565b61361581613600565b82525050565b6000602082019050613630600083018461360c565b92915050565b600081519050919050565b600082825260208201905092915050565b60005b83811015613670578082015181840152602081019050613655565b8381111561367f576000848401525b50505050565b6000601f19601f8301169050919050565b60006136a182613636565b6136ab8185613641565b93506136bb818560208601613652565b6136c481613685565b840191505092915050565b600060208201905081810360008301526136e98184613696565b905092915050565b6000819050919050565b613704816136f1565b811461370f57600080fd5b50565b600081359050613721816136fb565b92915050565b60006020828403121561373d5761373c613571565b5b600061374b84828501613712565b91505092915050565b600073ffffffffffffffffffffffffffffffffffffffff82169050919050565b600061377f82613754565b9050919050565b61378f81613774565b82525050565b60006020820190506137aa6000830184613786565b92915050565b6137b981613774565b81146137c457600080fd5b50565b6000813590506137d6816137b0565b92915050565b600080604083850312156137f3576137f2613571565b5b6000613801858286016137c7565b925050602061381285828601613712565b9150509250929050565b600080fd5b7f4e487b7100000000000000000000000000000000000000000000000000000000600052604160045260246000fd5b61385982613685565b810181811067ffffffffffffffff8211171561387857613877613821565b5b80604052505050565b600061388b613567565b90506138978282613850565b919050565b600067ffffffffffffffff8211156138b7576138b6613821565b5b602082029050602081019050919050565b600080fd5b60006138e06138db8461389c565b613881565b90508083825260208201905060208402830185811115613903576139026138c8565b5b835b8181101561392c57806139188882613712565b845260208401935050602081019050613905565b5050509392505050565b600082601f83011261394b5761394a61381c565b5b813561395b8482602086016138cd565b91505092915050565b6000806040838503121561397b5761397a613571565b5b600061398985828601613712565b925050602083013567ffffffffffffffff8111156139aa576139a9613576565b5b6139b685828601613936565b9150509250929050565b6000806000606084860312156139d9576139d8613571565b5b60006139e7868287016137c7565b93505060206139f8868287016137c7565b9250506040613a0986828701613712565b9150509250925092565b613a1c816136f1565b82525050565b6000602082019050613a376000830184613a13565b92915050565b6000608082019050613a526000830187613786565b613a5f6020830186613a13565b613a6c6040830185613786565b613a79606083018461360c565b95945050505050565b600080fd5b600067ffffffffffffffff821115613aa257613aa1613821565b5b613aab82613685565b9050602081019050919050565b82818337600083830152505050565b6000613ada613ad584613a87565b613881565b905082815260208101848484011115613af657613af5613a82565b5b613b01848285613ab8565b509392505050565b600082601f830112613b1e57613b1d61381c565b5b8135613b2e848260208601613ac7565b91505092915050565b600080600060608486031215613b5057613b4f613571565b5b600084013567ffffffffffffffff811115613b6e57613b6d613576565b5b613b7a86828701613b09565b9350506020613b8b868287016137c7565b9250506040613b9c86828701613712565b9150509250925092565b600060208284031215613bbc57613bbb613571565b5b6000613bca848285016137c7565b91505092915050565b6000604082019050613be86000830185613a13565b613bf5602083018461360c565b9392505050565b613c0581613600565b8114613c1057600080fd5b50565b600081359050613c2281613bfc565b92915050565b60008060408385031215613c3f57613c3e613571565b5b6000613c4d858286016137c7565b9250506020613c5e85828601613c13565b9150509250929050565b600067ffffffffffffffff821115613c8357613c82613821565b5b613c8c82613685565b9050602081019050919050565b6000613cac613ca784613c68565b613881565b905082815260208101848484011115613cc857613cc7613a82565b5b613cd3848285613ab8565b509392505050565b600082601f830112613cf057613cef61381c565b5b8135613d00848260208601613c99565b91505092915050565b60008060008060808587031215613d2357613d22613571565b5b6000613d31878288016137c7565b9450506020613d42878288016137c7565b9350506040613d5387828801613712565b925050606085013567ffffffffffffffff811115613d7457613d73613576565b5b613d8087828801613cdb565b91505092959194509250565b60008060408385031215613da357613da2613571565b5b6000613db1858286016137c7565b9250506020613dc2858286016137c7565b9150509250929050565b7f4e487b7100000000000000000000000000000000000000000000000000000000600052602260045260246000fd5b60006002820490506001821680613e1357607f821691505b60208210811415613e2757613e26613dcc565b5b50919050565b7f4552433732313a20617070726f76616c20746f2063757272656e74206f776e6560008201527f7200000000000000000000000000000000000000000000000000000000000000602082015250565b6000613e89602183613641565b9150613e9482613e2d565b604082019050919050565b60006020820190508181036000830152613eb881613e7c565b9050919050565b7f4552433732313a20617070726f76652063616c6c6572206973206e6f7420746f60008201527f6b656e206f776e6572206f7220617070726f76656420666f7220616c6c000000602082015250565b6000613f1b603d83613641565b9150613f2682613ebf565b604082019050919050565b60006020820190508181036000830152613f4a81613f0e565b9050919050565b7f6f6e6c792056524620563220777261707065722063616e2066756c66696c6c00600082015250565b6000613f87601f83613641565b9150613f9282613f51565b602082019050919050565b60006020820190508181036000830152613fb681613f7a565b9050919050565b7f4552433732313a2063616c6c6572206973206e6f7420746f6b656e206f776e6560008201527f72206f7220617070726f76656400000000000000000000000000000000000000602082015250565b6000614019602d83613641565b915061402482613fbd565b604082019050919050565b600060208201905081810360008301526140488161400c565b9050919050565b7f5468726573686f6c64206e6f7420726561636865640000000000000000000000600082015250565b6000614085601583613641565b91506140908261404f565b602082019050919050565b600060208201905081810360008301526140b481614078565b9050919050565b6000815190506140ca816136fb565b92915050565b6000602082840312156140e6576140e5613571565b5b60006140f4848285016140bb565b91505092915050565b7f4e487b7100000000000000000000000000000000000000000000000000000000600052601160045260246000fd5b6000614137826136f1565b9150614142836136f1565b925082821015614155576141546140fd565b5b828203905092915050565b7f4e487b7100000000000000000000000000000000000000000000000000000000600052603260045260246000fd5b7f4e487b7100000000000000000000000000000000000000000000000000000000600052601260045260246000fd5b60006141c9826136f1565b91506141d4836136f1565b9250826141e4576141e361418f565b5b828206905092915050565b60006141fa826136f1565b9150614205836136f1565b9250827fffffffffffffffffffffffffffffffffffffffffffffffffffffffffffffffff0382111561423a576142396140fd565b5b828201905092915050565b600081905092915050565b50565b6000614260600083614245565b915061426b82614250565b600082019050919050565b600061428182614253565b9150819050919050565b7f4661696c656420746f2073656e64204574686572000000000000000000000000600082015250565b60006142c1601483613641565b91506142cc8261428b565b602082019050919050565b600060208201905081810360008301526142f0816142b4565b9050919050565b7f4552433732313a20696e76616c696420746f6b656e2049440000000000000000600082015250565b600061432d601883613641565b9150614338826142f7565b602082019050919050565b6000602082019050818103600083015261435c81614320565b9050919050565b7f4e6f7420656e6f7567682065746865722073656e740000000000000000000000600082015250565b6000614399601583613641565b91506143a482614363565b602082019050919050565b600060208201905081810360008301526143c88161438c565b9050919050565b7f496e76616c696420636f6e747261637420616464726573730000000000000000600082015250565b6000614405601883613641565b9150614410826143cf565b602082019050919050565b60006020820190508181036000830152614434816143f8565b9050919050565b60006060820190506144506000830186613786565b61445d6020830185613786565b61446a6040830184613a13565b949350505050565b7f4552433732313a2061646472657373207a65726f206973206e6f74206120766160008201527f6c6964206f776e65720000000000000000000000000000000000000000000000602082015250565b60006144ce602983613641565b91506144d982614472565b604082019050919050565b600060208201905081810360008301526144fd816144c1565b9050919050565b7f4d7573742062652070726f706f736564206f776e657200000000000000000000600082015250565b600061453a601683613641565b915061454582614504565b602082019050919050565b600060208201905081810360008301526145698161452d565b9050919050565b60006040820190506145856000830185613786565b6145926020830184613a13565b9392505050565b6000815190506145a881613bfc565b92915050565b6000602082840312156145c4576145c3613571565b5b60006145d284828501614599565b91505092915050565b7f556e61626c6520746f207472616e736665720000000000000000000000000000600082015250565b6000614611601283613641565b915061461c826145db565b602082019050919050565b6000602082019050818103600083015261464081614604565b9050919050565b600063ffffffff82169050919050565b61466081614647565b82525050565b600060208201905061467b6000830184614657565b92915050565b7f72657175657374206e6f7420666f756e64000000000000000000000000000000600082015250565b60006146b7601183613641565b91506146c282614681565b602082019050919050565b600060208201905081810360008301526146e6816146aa565b9050919050565b7f4552433732313a207472616e736665722066726f6d20696e636f72726563742060008201527f6f776e6572000000000000000000000000000000000000000000000000000000602082015250565b6000614749602583613641565b9150614754826146ed565b604082019050919050565b600060208201905081810360008301526147788161473c565b9050919050565b7f4552433732313a207472616e7366657220746f20746865207a65726f2061646460008201527f7265737300000000000000000000000000000000000000000000000000000000602082015250565b60006147db602483613641565b91506147e68261477f565b604082019050919050565b6000602082019050818103600083015261480a816147ce565b9050919050565b7f4f6e6c792063616c6c61626c65206279206f776e657200000000000000000000600082015250565b6000614847601683613641565b915061485282614811565b602082019050919050565b600060208201905081810360008301526148768161483a565b9050919050565b7f45524337323155524953746f726167653a2055524920736574206f66206e6f6e60008201527f6578697374656e7420746f6b656e000000000000000000000000000000000000602082015250565b60006148d9602e83613641565b91506148e48261487d565b604082019050919050565b60006020820190508181036000830152614908816148cc565b9050919050565b7f4552433732313a20617070726f766520746f2063616c6c657200000000000000600082015250565b6000614945601983613641565b91506149508261490f565b602082019050919050565b6000602082019050818103600083015261497481614938565b9050919050565b7f4552433732313a207472616e7366657220746f206e6f6e20455243373231526560008201527f63656976657220696d706c656d656e7465720000000000000000000000000000602082015250565b60006149d7603283613641565b91506149e28261497b565b604082019050919050565b60006020820190508181036000830152614a06816149ca565b9050919050565b600081905092915050565b6000614a2382613636565b614a2d8185614a0d565b9350614a3d818560208601613652565b80840191505092915050565b6000614a558285614a18565b9150614a618284614a18565b91508190509392505050565b600061ffff82169050919050565b614a8481614a6d565b82525050565b6000606082019050614a9f6000830186614657565b614aac6020830185614a7b565b614ab96040830184614657565b949350505050565b600081519050919050565b600082825260208201905092915050565b6000614ae882614ac1565b614af28185614acc565b9350614b02818560208601613652565b614b0b81613685565b840191505092915050565b6000606082019050614b2b6000830186613786565b614b386020830185613a13565b8181036040830152614b4a8184614add565b9050949350505050565b7f43616e6e6f74207472616e7366657220746f2073656c66000000000000000000600082015250565b6000614b8a601783613641565b9150614b9582614b54565b602082019050919050565b60006020820190508181036000830152614bb981614b7d565b9050919050565b6000608082019050614bd56000830187613786565b614be26020830186613786565b614bef6040830185613a13565b8181036060830152614c018184614add565b905095945050505050565b600081519050614c1b816135a7565b92915050565b600060208284031215614c3757614c36613571565b5b6000614c4584828501614c0c565b91505092915050565b7f4552433732313a206d696e7420746f20746865207a65726f2061646472657373600082015250565b6000614c84602083613641565b9150614c8f82614c4e565b602082019050919050565b60006020820190508181036000830152614cb381614c77565b9050919050565b7f4552433732313a20746f6b656e20616c7265616479206d696e74656400000000600082015250565b6000614cf0601c83613641565b9150614cfb82614cba565b602082019050919050565b60006020820190508181036000830152614d1f81614ce3565b905091905056fea26469706673582212200e0406ad9e96f29a45eaa63c78157be9eb367b0e143aaec08640ca6f46d13cc864736f6c63430008090033",
  "linkReferences": {},
  "deployedLinkReferences": {}
}